:100000000C94FE000C9412010C9412010C94120139
:100010000C9412010C9412010C9412010C94120114
:100020000C9412010C9412010C9412010C94120104
:100030000C9412010C9412010C9414010C941201F2
:100040000C9412010C9412010C9412010C941201E4
:100050000C9412010C9412010C9412010C941201D4
:100060000C9412010C9412010C9412010C941201C4
:100070000C9412010C9412010C9412010C941201B4
:100080000C9412010C9412010C9412010C941201A4
:100090000C9412010C9412010C9412010C94120194
:1000A0000C9412010C9412010C9412010C94120184
:1000B0000C9412010C9412010C9412010C94120174
:1000C0000C9412010C9412010C9412010C94120164
:1000D0000C9412010C9412010C9412010C94120154
:1000E0000C9412010C9412010C9412010C94120144
:1000F0000C9412010C9412010C9412010C94120134
:100100000C9412010C9412010C9412010C94120123
:100110000C9412010C9412010C9412010C94120113
:100120000C9412010C9412010C9412010C94120103
:100130000C9412010C9412010C9412010C941201F3
:100140000C9412010C9412010C9412010C941201E3
:100150000C9412010C9412010C9412010C941201D3
:100160000C9412010C9412010C9412010C941201C3
:100170000C9412010C9412010C9412010C941201B3
:100180000C9412010C9412010C9412010C941201A3
:100190000C9412010C9412010C9412010C94120193
:1001A0000C9412010C9412010C9412010C94120183
:1001B0000C9412010C9412010C9412010C94120173
:1001C0000C9412010C9412010C9412010C94120163
:1001D0000C9412010C9412010C9412010C94120153
:1001E0000C9412010C9412010C9412010C94120143
:1001F0000C9412010C9412010C94120111241FBED4
:10020000CFEFCDBFDFE5DEBF00E00CBF21E2A0E015
:10021000B0E201C01D92AC32B207E1F70E94A20128
:100220000C942C020C9400001F920F920FB60F92A8
:10023000112400000F900FBE0F901F9018958F9201
:10024000AF92BF92CF92EF920F931F93CF93DF9312
:10025000EC011F921F92812C0F2EFCE2AF2EBB24CB
:10026000B394F02DCC24C3946894EE24E2F800E01B
:1002700010E220E040E068EA76E00E94F601CE015C
:100280000E94240260E4CE010E9429020F900F9088
:10029000DF91CF911F910F91EF90CF90BF90AF90D2
:1002A0008F9008958F92AF92BF92CF92EF920F935B
:1002B0001F93CF93DF93EC0181E08F931F92812CEA
:1002C0000F2EFCE2AF2EBB24B394F02DC12CE12CF9
:1002D00004EE17E020E140E460E070E2CE010E940D
:1002E000F601CE010E94240260E4CE010E942902A0
:1002F0000F900F90DF91CF911F910F91EF90CF90C2
:10030000BF90AF908F900895E0E0F8E081E08083A7
:100310002FEF3FEF26A337A38683E0EAF0E0828148
:10032000816082830895E0EEF7E014822FE78AE18E
:1003300096E0215080409040E1F700C000008FEF30
:10034000848308958FEF8093B000E0EAF6E098E1AF
:10035000918B928B10828093E007E0E0F1E0808146
:100360008068808380E191E00E941F0180E291E03B
:100370000E9452010E9484017894C0EAD6E00E9453
:10038000930188858F3FE9F30E94930180E191E01A
:100390000E94EC0180E191E00E94E5010E9493013E
:1003A00088858F3FE9F30E94930180E291E00E94EB
:1003B000EC0188858F3FE9F380E291E00E94F10132
:1003C00080E291E00E945201DACFFC0181818073CA
:1003D000E9F390E391830895FC0190819068908304
:1003E0000895FC0190819F77908308958F92AF923A
:1003F000BF92CF92EF920F931F93CF93DF93CDB71E
:10040000DEB7FC0160877187128604871587168620
:10041000CE282C29422B4283A482B58280818C7DF8
:1004200088299E85992329F0806280838D85868323
:1004300001C08083DF91CF911F910F91EF90CF90FA
:10044000BF90AF908F900895FC019081946090834D
:0C0450000895FC0163830895F894FFCF29
:00000001FF
