:100000000C943D000C945A000C945A000C945A0025
:100010000C945A000C945A000C945A000C945A00F8
:100020000C945A000C945A000C945A000C945A00E8
:100030000C945A000C945A000C945A000C945A00D8
:100040000C945A000C945A000C945A000C945A00C8
:100050000C945A000C9471010C945A000C945A00A0
:100060000C945A000C945A00570159015C015F012D
:100070006201650168016B016E0111241FBECFEFA3
:10008000D4E0DEBFCDBF11E0A0E0B1E0E4E2FCE0EF
:1000900002C005900D92A430B107D9F722E0A4E088
:1000A000B1E001C01D92A63BB207E1F70E94C80073
:1000B0000C9410060C940000F894E1E6F0E080E85F
:1000C0008083108278940895AF92BF92CF92DF928E
:1000D000EF92FF920F931F93CF93DF935B0116165E
:1000E0001706CCF4EC018B01000F111F000F111F3C
:1000F000080F191FC12CD12C7601299139914991F2
:100100005991C701B6010E94A5036B017C01C0177C
:10011000D10799F703C0C12CD12C7601B501BB0CD6
:10012000880B990B0E94C0049B01AC01C701B6016A
:100130000E941604DF91CF911F910F91FF90EF90D5
:10014000DF90CF90BF90AF9008950F931F9390785A
:1001500099231CF401979F6F01966817790714F093
:10016000289A01C028988417950714F0449A01C072
:1001700044988217930714F0439A01C0439880175C
:10018000910714F02A9A01C02A981F910F9108959F
:100190000E945C000FB6F894A89580916000886179
:1001A00080936000109260000FBE99E288E10FB664
:1001B000F894A895809360000FBE9093600085E04E
:1001C00084B988E387B98FEF8AB90FEF10E020E098
:1001D00030E04FEF50E06FEF70E080E890E00E9479
:1001E000A5002AE230E58EEF90E0215030408040BB
:1001F0009040D9F7000083B7817F826083BF83B7C7
:10020000816083BF789410927C008FE880937A009D
:10021000C1E0D0E06894FF24F5F806C0D85788B153
:100220008F2588B901C0EC01C11101C0889580916A
:100230000C0190910D018536910564F400E010E009
:1002400020E030E040E050E060E070E0CE010E944D
:10025000A50013C000910E0110910F012091100113
:100260003091110140910001509101016091020112
:1002700070910301CE010E94A500A895CE010196C0
:10028000811538E793077CF2CF5FD74788B18F2578
:1002900088B9C11588E7D8070CF0C0CFC5CF893021
:1002A0009105F0F4FC01EC5CFF4F0C94F6051BB8D3
:1002B000089580E88BB9089580EC8BB9089580EE9D
:1002C0008BB9089580EF8BB9089588EF8BB90895A5
:1002D0008CEF8BB908958EEF8BB908958FEF8BB9A2
:1002E00008951F920F920FB60F9211248F929F9232
:1002F000AF92BF92CF92DF92EF92FF920F931F9334
:100300002F933F934F935F936F937F938F939F931D
:10031000AF93BF93EF93FF9380910C0190910D01E8
:100320009C012F5F3F4F211548E734072CF4309391
:100330000D0120930C0110C08F5F97478436910503
:100340002CF090930D0180930C0106C084E690E0A0
:1003500090930D0180930C01609178007091790069
:1003600080E090E00E94BE0420E030E040E85AE3E4
:100370000E9475054B015C0180910C0190910D016B
:1003800065E070E00E94E205FC01EE0FFF1FEE0F3A
:10039000FF1FEE55FD4F80829182A282B38265E0FD
:1003A00070E082EA92E00E9464006B017C0120E030
:1003B00030E040E151E40E9475050E948804CB01C1
:1003C0000E944F01E0910C01F0910D01E536F1051D
:1003D0000CF055C0CF016AE070E00E94E205892B65
:1003E00049F500E010E020E030E04FEF50E06FEF23
:1003F00070E0CF010E94A5008FEF94E32CE08150C4
:1004000090402040E1F700C0000020E030E040E0F4
:1004100050E060E070E080910C0190910D010E942D
:10042000A5004FEF84E39CE0415080409040E1F70D
:1004300000C0000020910C0130910D01C90164E65B
:1004400070E00E94E205FC01EE0FFF1FEE0FFF1FA0
:10045000EE5EFE4F80829182A282B3822436310505
:1004600071F464E670E082E191E00E9464006093C0
:1004700008017093090180930A0190930B01809009
:10048000080190900901A0900A01B0900B01A5010C
:100490009401C701B6010E94A40320E030E040E0CF
:1004A0005FE30E94A5036B017C01609304017093DC
:1004B0000501809306019093070120E030E0A90137
:1004C0000E941104882364F4109204011092050123
:1004D0001092060110920701C12CD12C760187C021
:1004E00020E030E040E85FE3C701B6010E947005FC
:1004F00018167CF480E090E0A0E8BFE3809304014C
:1005000090930501A0930601B09307016C017D0152
:100510009DC0C0900401D0900501E0900601F090CC
:1005200007012DEC3CEC4CEC5EE3C701B6010E94E8
:10053000700518160CF051C02AE939E949E15FE36A
:10054000C701B6010E94110488230CF046C0109226
:100550000101109200018FEF90E0909311018093C0
:10056000100110920F0110920E0120E030E040E0E7
:100570005FE3C701B6010E9411048823BCF42DEC8F
:100580003CEC4CEC5EE3C701B6010E94A40320E002
:1005900030E04AE754E40E9475050E948804665FD3
:1005A0007F4F70930301609302017EC0A701960103
:1005B0006AE979E989E19FE30E94A40320E030E041
:1005C0004AE754E40E9475050E948804665F7F4FE5
:1005D00070930301609302015DC02DEC3CEC4CEC88
:1005E0005EE3C701B6010E94110418162CF11092A7
:1005F00001011092000110921101109210018FEF71
:1006000090E090930F0180930E01A70196016DEC8D
:100610007CEC8CEC9EE30E94A40320E030E040E8F8
:1006200053E40E9475050E948804665F7F4F7093B3
:100630000301609302012EC02AE939E949E15FE331
:10064000C701B6010E947005882324F18FEF90E066
:1006500090930101809300011092110110921001FA
:1006600010920F0110920E012AE939E949E15FE386
:10067000C701B6010E94A40320E030E040E853E443
:100680000E9475050E948804665F7F4F7093030186
:100690006093020120E030E040E05FE3C701B60173
:1006A0000E9411048823DCF42DEC3CEC4CEC5DE35F
:1006B000C501B4010E94700518165CF52CEA35ECF2
:1006C00047E257E3C501B4010E94A4036093080107
:1006D0007093090180930A0190930B011AC026E6DA
:1006E00036E646E65FE3C501B4010E9411048823A3
:1006F00084F42CEA35EC47E257E3C501B4010E94CB
:10070000A503609308017093090180930A019093F7
:100710000B01FF91EF91BF91AF919F918F917F91CD
:100720006F915F914F913F912F911F910F91FF908A
:10073000EF90DF90CF90BF90AF909F908F900F90F1
:100740000FBE0F901F9018955058BB27AA270E94E4
:10075000BC030C9436050E94280538F00E942F0532
:1007600020F039F49F3F19F426F40C9425050EF47B
:10077000E095E7FB0C941F05E92F0E94470558F30D
:10078000BA17620773078407950720F079F4A6F576
:100790000C9469050EF4E0950B2EBA2FA02D0B01D9
:1007A000B90190010C01CA01A0011124FF27591BB6
:1007B00099F0593F50F4503E68F11A16F040A22FBC
:1007C000232F342F4427585FF3CF4695379527952D
:1007D000A795F0405395C9F77EF41F16BA0B620B2C
:1007E000730B840BBAF09150A1F0FF0FBB1F661F73
:1007F000771F881FC2F70EC0BA0F621F731F841FB6
:1008000048F4879577956795B795F7959E3F08F0DB
:10081000B0CF9395880F08F09927EE0F979587959D
:1008200008950E94FB0408F481E008950E942A04C0
:100830000C9436050E942F0558F00E94280540F0C0
:1008400029F45F3F29F00C941F0551110C946A059F
:100850000C9425050E94470568F39923B1F35523AD
:1008600091F3951B550BBB27AA27621773078407C3
:1008700038F09F5F5F4F220F331F441FAA1FA9F359
:1008800035D00E2E3AF0E0E832D091505040E69547
:10089000001CCAF72BD0FE2F29D0660F771F881FA8
:1008A000BB1F261737074807AB07B0E809F0BB0B9B
:1008B000802DBF01FF2793585F4F3AF09E3F5105AF
:1008C00078F00C941F050C946A055F3FE4F3983EA2
:1008D000D4F3869577956795B795F7959F5FC9F798
:1008E000880F911D9695879597F90895E1E0660F19
:1008F000771F881FBB1F621773078407BA0720F092
:10090000621B730B840BBA0BEE1F88F7E0950895FA
:100910000E948F046894B1110C946A0508950E9496
:100920004F0588F09F5798F0B92F9927B751B0F02D
:10093000E1F0660F771F881F991F1AF0BA95C9F763
:1009400014C0B13091F00E946905B1E008950C9493
:100950006905672F782F8827B85F39F0B93FCCF346
:10096000869577956795B395D9F73EF490958095E0
:10097000709561957F4F8F4F9F4F0895E89409C000
:1009800097FB3EF490958095709561957F4F8F4FC2
:100990009F4F9923A9F0F92F96E9BB279395F695D8
:1009A000879577956795B795F111F8CFFAF4BB0F56
:1009B00011F460FF1BC06F5F7F4F8F4F9F4F16C0BA
:1009C000882311F096E911C0772321F09EE8872F44
:1009D000762F05C0662371F096E8862F70E060E000
:1009E0002AF09A95660F771F881FDAF7880F969579
:1009F000879597F90895990F0008550FAA0BE0E81D
:100A0000FEEF16161706E807F907C0F012161306D0
:100A1000E407F50798F0621B730B840B950B39F410
:100A20000A2661F0232B242B252B21F408950A2676
:100A300009F4A140A6958FEF811D811D089597F9B6
:100A40009F6780E870E060E008959FEF80EC089574
:100A500000240A941616170618060906089500249D
:100A60000A9412161306140605060895092E039417
:100A7000000C11F4882352F0BB0F40F4BF2B11F48B
:100A800060FF04C06F5F7F4F8F4F9F4F089557FDEA
:100A90009058440F551F59F05F3F71F04795880FEC
:100AA00097FB991F61F09F3F79F087950895121683
:100AB00013061406551FF2CF4695F1DF08C016162F
:100AC00017061806991FF1CF8695710561050894E0
:100AD0000895E894BB2766277727CB0197F90895F7
:100AE0000E94FB0408F48FEF08950E9488050C947F
:100AF00036050E94280538F00E942F0520F0952326
:100B000011F00C941F050C94250511240C946A0512
:100B10000E94470570F3959FC1F3950F50E0551F54
:100B2000629FF001729FBB27F00DB11D639FAA2742
:100B3000F00DB11DAA1F649F6627B00DA11D661F91
:100B4000829F2227B00DA11D621F739FB00DA11DB2
:100B5000621F839FA00D611D221F749F3327A00D6C
:100B6000611D231F849F600D211D822F762F6A2F08
:100B700011249F5750409AF0F1F088234AF0EE0F6D
:100B8000FF1FBB1F661F771F881F91505040A9F79A
:100B90009E3F510580F00C941F050C946A055F3F41
:100BA000E4F3983ED4F3869577956795B795F795D6
:100BB000E7959F5FC1F7FE2B880F911D969587954E
:100BC00097F9089597FB072E16F4009407D077FD48
:100BD00009D00E94FC0507FC05D03EF49095819554
:100BE0009F4F0895709561957F4F0895EE0FFF1FF9
:100BF0000590F491E02D0994AA1BBB1B51E107C09D
:100C0000AA1FBB1FA617B70710F0A61BB70B881F9C
:100C1000991F5A95A9F780959095BC01CD0108952B
:040C2000F894FFCF76
:040C2400FF0032009B
:00000001FF
