:10000000F9C000001BC1000019C1000017C10000A9
:1000100015C1000013C1000011C100000FC1000094
:100020000DC100000BC1000009C100000C94D012EA
:1000300005C1000003C1000001C10000F2C70000BB
:10004000FDC00000FBC00000F9C0000017C20000A6
:10005000F5C00000F3C00000F1C00000EFC00000D8
:10006000EDC00000EBC00000E9C00000E7C00000E8
:10007000E5C000001803410056005200490053003B
:10008000500020006D006B004900490000000C0387
:10009000410054004D0045004C00000004030904D9
:1000A00012011001FF000010EB0304210002010205
:1000B000030109000A000A000B000C000D000D00EE
:1000C0000E000F00100010001200130013001400A7
:1000D00016001600180019001A001C001D001F0051
:1000E0002000220023002500270029002B002E00DD
:1000F00030003200340037003A003D004000430039
:1001000046004A004E00520055005A005E0063004F
:1001100068006D00730078007E0084008B00910001
:100120009900A000A900B100B900C300CC00D6001E
:10013000E100EC00F700040111011E012D013B015B
:100140004B015B016C017D019101A501BA01CF0159
:10015000E601FE01160231024C026A028802A80280
:10016000CA02ED021103380360038B03B803E703EF
:1001700018044B048104B904F50434057505B90568
:1001800001064E069D06EF064807A307040865080A
:10019000D0084009B6092B0AAB0A300BC30B510C2F
:1001A000EE0C8F0D400EF60EAF0F681047111412B3
:1001B000F512ED13E214F015F9161B185C19911ADB
:1001C000E51B251D831E0320AB21302332250F277D
:1001D000F128F82A1A2D492FA1311434A1364539B6
:1001E000173C1A3F34426045DF48704C40004101E3
:1001F0004243030011241FBECFEFD2E0DEBFCDBFCC
:1002000094B781E0923009F080E08093B40114BE8D
:1002100011E0A0E0B1E0ECE5F9E202C005900D923A
:10022000A03AB107D9F721E0A0EAB1E001C01D92E0
:10023000A43BB207E1F75DD00C94AC14E1CE95B1CC
:100240009F71892B85B9089584B7877F84BF0FB6C6
:10025000F894A89580916000886180936000109266
:1002600060000FBE90E080E80FB6F89480936100C4
:10027000909361000FBE84B1806E84B985B18F7197
:1002800085B999D00C94C11280ECD9CF80E4D7CF36
:10029000CF9342E360E882E00E942B12C82F609166
:1002A000A301862F8F70823061F0853040F4661F85
:1002B0006627661F606842E30E942B1201C080E03F
:1002C000C823C11102C080E401C080E8CF91B7CF3C
:1002D0008EB3843069F43AD282E08093E900809151
:1002E000E80082FF05C080ECAADFE5D080E8A7CF58
:1002F0000895AADFD8D080E4A2DF7894489902C09C
:1003000090E201C090E085B18F7D892B85B9E0DF57
:100310000E947914F3CF00C0F9011082292F3327EE
:100320002230310559F02330310599F02130310563
:10033000D1F582E190E020EA30E039C082E08083AC
:100340008091A3018093320180E290E02EE131E0C0
:100350002EC0992781309105E9F02CF4892B19F5ED
:10036000ECE9F0E01CC082309105B9F00397D9F4B4
:100370008091000190E06091A3016F7070E0605D7A
:100380007F4F70930F0160930E0122E0208320E0E5
:1003900031E00DC0EEE8F0E002C0E4E7F0E0849167
:1003A00090E09F0104C080E090E020E030E0FA019E
:1003B00031832083089580E090E00E94921480931E
:1003C000A3019091B401992359F0833811F063E8A7
:1003D00001C062E86093A30180E090E00E949A145B
:1003E00085B18F7185B98091A301823829F0833856
:1003F000B1F182E88093A30180EE83B92FEF31EE53
:1004000044E0215030404040E1F700C0000083B993
:100410009FEF21EE34E0915020403040E1F700C0E2
:10042000000083B94FEF91EE24E04150904020400E
:10043000E1F700C0000083B93FEF41EE84E03150A6
:1004400040408040E1F700C000009FEF29E638E11E
:10045000915020403040E1F700C0000008958AE04C
:1004600090EE93B94FEF21EE34E041502040304000
:10047000E1F700C000008150A1F7E7CF78941F9208
:100480000F920FB60F9211248F938AB5882321F013
:100490008AB581508ABD01C015BC8F910F900FBEE7
:1004A0000F901F9018958BE987BD82E084BD8093E3
:1004B0006E0031D1E4C50F931F93CF93DF931F924A
:1004C000CDB7DEB70091F10084E68ABD85E085BD39
:1004D000043109F4CCC008F03FC00A3009F4AEC0C2
:1004E00058F5043028F5023008F053C0013009F007
:1004F000CDC08091E8008B778093E8008091A301C4
:100500008F708093E9008091EC0081608093EC0013
:100510000093F1001092F1008AE08093F10040E036
:1005200050E06AE070E085E991E00E941D10CEC0C5
:10053000063009F45BC0AAC0013109F493C028F465
:10054000003109F0A3C05FD4C6C0023109F492C0E3
:10055000033109F489C09AC0093109F490C060F4EC
:10056000063109F484C008F47FC0073109F487C05C
:10057000083109F481C08AC00D3109F483C008F440
:100580007BC0003509F480C0013509F07FC0D2D7A7
:10059000A2C01091F100023011F46091F10080913D
:1005A000E8008B778093E8008091A3018F7080939F
:1005B000E9008091EC0081608093EC000093F100F1
:1005C000812F6983C4D06981023039F481FF0CC066
:1005D0001092F100812FCBD079C080FF05C010921E
:1005E000F100812FBCD070C080EC6EC040E050E0C4
:1005F00064E070E085EA91E00E94B1108091E8002B
:100600008B778093E8008091A3018F708093E9003D
:100610008091EC0081608093EC008091A501909125
:10062000A601A091A701B091A801B7FF03C081E086
:100630008093A40186E08093F10011C08091E800CE
:100640008B778093E8008091A3018F708093E900FD
:100650008091EC0081608093EC000093F100109297
:10066000F10034C059D437C0802FC4D034C0802F9B
:10067000F0D131C087D42FC0802F8BD22CC0802FD7
:10068000E4D229C026D327C087D725C08091F200A5
:10069000803441F48091E8008B778093E8000E94D9
:1006A0005C12F4CF8091E8008B778093E800809112
:1006B000A3018F708093E9008091EC0081608093AA
:1006C000EC000093F10089EC8093F1008091E80048
:1006D0008E778093E80015BC0E945C1282E08093C4
:1006E000E9008091EC008E7F8093EC000F90DF9109
:1006F000CF911F910F910895EEE3F1E0908189175A
:1007000041F0339691E0EC35F907C1F780E090E0D5
:100710000895CF010895CF93DF9382E090E00E9487
:100720009214D82F81E090E00E949214C82FDF3FEE
:1007300021F08EE9E1DFFC01D283CF3F21F088E98F
:10074000DBDFFC01C283DF91CF9108950895D4DFF0
:10075000009719F0FC018181089580E00895CCDFB5
:10076000009719F0FC018281089580E008951F939D
:10077000CF93DF931F92CDB7DEB7182F6983BCDF0D
:100780006981009789F0FC0162831E3919F482E0C7
:1007900090E004C0183941F481E090E00F90DF91BF
:1007A000CF911F910C949A140F90DF91CF911F91CC
:1007B000089590915C01992331F08EBD0DB407FE30
:1007C000FDCF8EB50895C2C490915C01992329F0A4
:1007D0008EBD0DB407FEFDCF0895B8C480915C01B5
:1007E000882331F01EBC0DB407FEFDCF8EB50895F1
:1007F00080E0ACC44F925F926F927F928F929F92F3
:10080000AF92BF92CF92DF92EF92FF920F931F931E
:10081000CF93DF93CDB7DEB7C950D1400FB6F89470
:10082000DEBF0FBECDBF182F40E050E069E070E0A2
:10083000CE0101960E9467106A8179817A8369836B
:10084000613081E0780798F08091E8008B778093A1
:10085000E8008091A3018F708093E9008091EC0003
:1008600081608093EC001093F10080ECD3C040E0F5
:1008700050E0CE010A960E94671089819A810A96FB
:100880008F739927892B39F48091E8008B778093B7
:10089000E8000E945C128091E8008B778093E8006A
:1008A0008091A3018F708093E9008091EC008160BA
:1008B0008093EC00133111F4C88401C0C984709096
:1008C000A5016090A601FE013A964F01A12CB12C22
:1008D000E12CF12C88E0582E4424439489819A819C
:1008E000A816B90608F066C0F40101914F01DB803B
:1008F0008091A401882319F07CD41092A4018D81E9
:1009000063DF8091A60160DF8091A5015DDF802F0C
:100910005BDF133119F49D8195259D83E114F1046A
:1009200079F40C1569F08F81A0FE04C0133111F425
:10093000886001C0877F8F83E090A501F090A601B9
:10094000D0FC13C0E114F10431F4D3FC04C08D2DAC
:10095000897F8260D82E0F812C814C2DB7018D2D7F
:1009600051D4811128C0E12CF12CA0FC02C015311A
:10097000E9F48091A5019091A601A091A701B09101
:10098000A8010196A11DB11D8093A5019093A60118
:10099000A093A701B093A801133141F4AA27BB2764
:1009A000892B8A2B8B2B11F44092A401FFEFAF1AF5
:1009B000BF0A94CF80E09B8197FF2AC08E8104DF1D
:1009C000862D02DF872D00DF80E0FEDE8B8185FF34
:1009D00006C0E114F10419F48F7C80618B830F81D0
:1009E0002C814C2DB7018B810DD4133189F44091AA
:1009F000A5015091A6016091A7017091A8016627F9
:100A00007727452B462B472B19F491E09093A401AF
:100A10001093F1008093F1008091E8008E7780932D
:100A2000E800C75FDE4F0FB6F894DEBF0FBECDBF44
:100A3000DF91CF911F910F91FF90EF90DF90CF90BA
:100A4000BF90AF909F908F907F906F905F904F90EE
:100A50000895DF92EF92FF920F931F93CF93DF934E
:100A600000D01F92CDB7DEB7F82E40E050E063E033
:100A700070E0CE0101960E94671089819A81998366
:100A80008A838091E8008B778093E8008091A301AE
:100A90008F708093E9008091EC0081608093EC007E
:100AA000F092F1001092F10000E010E088E0E82EF2
:100AB000DD24D39489819A810817190708F04AC068
:100AC0008091A401882319F094D31092A4018B8102
:100AD0007BDE8091A60178DE8091A50175DE7EDE49
:100AE0008093F1008091E80085FD07C08091E800C7
:100AF0008E778093E8000E945C1284E1F81203C0B4
:100B00008B818E258B8300FD03C086E1F8121FC008
:100B10004091A5015091A6016091A7017091A80193
:100B20004F5F5F4F6F4F7F4F4093A5015093A601DA
:100B30006093A7017093A80186E1F81641F066273B
:100B40007727452B462B472B11F4D092A4010F5F3A
:100B50001F4FB0CF1092F1009091E8008091E80013
:100B60008E778093E80095FD09C00E945C12809109
:100B7000E8008E778093E8000E945C120F900F903F
:100B80000F90DF91CF911F910F91FF90EF90DF9029
:100B90000895CF92DF92EF92FF920F931F93CF931E
:100BA000DF93CDB7DEB729970FB6F894DEBF0FBE3F
:100BB000CDBFD82E40E050E065E070E0CE01019658
:100BC0000E9467109091E8009B779093E8009091C5
:100BD000A3019F709093E9009091EC009160909335
:100BE000EC007E0182E0E80EF11C8E010A5F1F4FCF
:100BF00084E0C82EC00EF70181917F01DADDF80193
:100C000081938F01CE12F7CFD092F1001092F100B4
:100C10008981FE01E80FF11D85818093F10010921A
:100C2000F1008091E8008E778093E80029960FB656
:100C3000F894DEBF0FBECDBFDF91CF911F910F9112
:100C4000FF90EF90DF90CF900895EF92FF920F9377
:100C50001F93CF93DF9300D000D0CDB7DEB7F82E2F
:100C600040E050E064E070E0CE0101960E94671021
:100C70009091E8009B779093E8009091A3019F707A
:100C80009093E9009091EC0091609093EC008E01BC
:100C90000F5F1F4F84E0E82EE00EF80181918F0175
:100CA00093DDE012FACFF092F1001092F100109271
:100CB000F1008091E8008E778093E8000F900F900C
:100CC0000F900F90DF91CF911F910F91FF90EF90B8
:100CD0000895FF920F931F93CF93DF93CDB7DEB7A5
:100CE000C250D1400FB6F894DEBF0FBECDBF40E07A
:100CF00050E063E070E0CE0101960E9467106981C8
:100D000070E040E050E0CE0104960E9467108091B0
:100D1000E8008B778093E8008091A3018F70809327
:100D2000E9008091EC0081608093EC008DE180937C
:100D3000F1001092F10010E08B81181778F489818E
:100D4000181740F4E4E0F0E0EC0FFD1FE10FF11D97
:100D5000808101C080E038DD1F5FEECF00E08A8136
:100D6000081710F58981181778F4FF24F394F10E11
:100D7000E4E0F0E0EC0FFD1FE10FF11D808119DDD3
:100D80008093F1001F2D03C029DD8093F100809135
:100D9000E80085FD07C08091E8008E778093E80029
:100DA0000E945C120F5FDBCF1092F1009091E8007F
:100DB0008091E8008E778093E80095FD09C00E943D
:100DC0005C128091E8008E778093E8000E945C12AC
:100DD000CE5FDE4F0FB6F894DEBF0FBECDBFDF9102
:100DE000CF911F910F91FF900895882359F09AB5E4
:100DF0008150992339F0EFE9FFE03197F1F700C016
:100E00000000F3CF0895BF92CF92DF92EF92FF924E
:100E10000F931F93CF93DF93CDB7DEB72F970FB606
:100E2000F894DEBF0FBECDBF40E050E06BE070E055
:100E3000CE0101960E9467108091E8008B77809325
:100E4000E8008091A3018F708093E9008091EC000D
:100E500081608093EC001092A5011092A60110927F
:100E6000A7011092A8018B81C0DF49D181E097D101
:100E70008A81BBDF7E018CE0E80EF11C84E0B82E95
:100E8000BE0C8C819FEF980F9C83882351F18AB50B
:100E9000882339F1CE0108966C0187018D81A5DF89
:100EA000F60181916F0185DCF80181938F01BE12FB
:100EB000F5CF8F81882351F0EBE0F0E0EC0FFD1FC0
:100EC000E80FF11D90818E81981302C080E00AC066
:100ED00080E065D18A8189DF81E061D18A8185DF07
:100EE000D0CF80EC90E19093F1008093F10080915D
:100EF000E8008E778093E8002F960FB6F894DEBF57
:100F00000FBECDBFDF91CF911F910F91FF90EF905A
:100F1000DF90CF90BF9008950F931F93CF93DF93EF
:100F200000D0CDB7DEB740E050E062E070E0CE0127
:100F300001960E94671008EE10E0F80180818B771F
:100F400080838091A3018F708093E900ECEEF0E044
:100F5000808181608083898148DF80E020D1A3D0B7
:100F60008A8143DFE1EFF0E081E180831082F801C4
:100F700080818E7780830F900F90DF91CF911F91AA
:100F80000F910895EF92FF920F931F93CF93DF93EA
:100F900000D000D000D0CDB7DEB740E050E066E032
:100FA00070E0CE0101960E9467108091E8008B7777
:100FB0008093E8008091A3018F708093E900809175
:100FC000EC0081608093EC008E010D5F1F4F7E016D
:100FD00087E0E80EF11CF80181918F01F5DB0E1519
:100FE0001F05C9F78A81811104C08981FEDE80E076
:100FF00001C0E1D092E19093F1008093F1008091E3
:10100000E8008E778093E80026960FB6F894DEBF4E
:101010000FBECDBFDF91CF911F910F91FF90EF9049
:1010200008951F920F920FB60F9211248F93199962
:1010300008C08091A10187FF02C02A9A19C02A988E
:1010400017C08091A101880F8093A1018091A00118
:1010500081508093A001811104C01092810082E030
:1010600086BB1B9B05C08091A10181608093A1017B
:10107000199A8F910F900FBE0F901F9018953E9A5E
:1010800010926F00109285001092840081E090E031
:10109000909389008093880080E48093800089E0A9
:1010A00080938100089580915C01882349F084B188
:1010B000897F84B985B1867F85B91CBC1DBC089524
:1010C00084B1897F84B985B1867F85B9D8CF92E014
:1010D00090936F001092850010928400E82FF0E04A
:1010E000EE0FFF1FEC55FF4F85919491909389006F
:1010F000809388001092800010928100089588E902
:101100002EDB8730D0F491E090935C01E82FF0E083
:10111000E451FE4FE491209A289A84B1866084B904
:1011200023982B9A8DB5E6FF02C0816001C08E7FA7
:101130008DBD2098E065ECBD089510925C0194B1DE
:10114000966094B995B1996095B9C1CF8093A1018A
:1011500088E08093A0018091A10187FF02C02A9AB4
:1011600001C02A9810928500109284008AE0809332
:1011700081008091A001882319F08AB58111F9CFEF
:10118000109281008091A101089590915C019923B2
:1011900029F08EBD0DB407FEFDCF0895D7CF88236B
:1011A00039F0249A8EE9DBDA811103C02C9A089574
:1011B00024982C98089580EFE8DF80E0E6DF80E057
:1011C000E4DF80915C01882331F01EBC0DB407FE82
:1011D000FDCF8EB502C080E0B9DF80FF03C08AB5C5
:1011E0008111E9CF8AB5811102C081E8089580E0BC
:1011F00008958DE4CADF80E0C8DF8091A701C5DFD4
:1012000080E0C3CF0F931F93CF93DF93D62F172F79
:10121000C42F8E77E82FF0E0E830F10579F134F44F
:10122000E230F10559F03497A9F02AC0E032F10517
:1012300089F0E034F10511F1709711F5822FD5DDB9
:101240001FC00DB407FEFDCF8EB58C1312C09AB52A
:10125000992379F0802F99DF812F97DF8D2F95DFEC
:1012600080915C01882311F01EBCEBCF80E06EDF23
:10127000ECCF8AB5811104C080E803C09CDF01C0B7
:1012800080E094E69ABDDF91CF911F910F91089570
:10129000AF92BF92CF92DF92EF92FF920F931F9384
:1012A000CF93DF93CDB7DEB7C850D1400FB6F894D7
:1012B000DEBF0FBECDBF40E050E068E070E0CE0181
:1012C000019605D78B819C812D813E813B832C83A8
:1012D0009D838E837F8168856F83788740E050E0AF
:1012E000CE010996F4D68F81988509968F73992738
:1012F000892B39F48091E8008B778093E8000E9475
:101300005C128091E8008B778093E8008091A301C4
:101310008F708093E9008091EC0081608093EC00F5
:101320008091A20181112DC0298121504B815C81C6
:101330006D817E812630A0F430E0F901E958FE4F3E
:101340008081F901EF58FE4F9081F901E559FE4F78
:10135000E081D901AB59BE4F2C912223D9F003C0B3
:10136000E6E293E28EE2AF80B8849E01275F3F4FB2
:1013700069017A018B012A81482F6E2F892F60D451
:101380000BC04F815885BE01675F7F4F8B819C8169
:10139000FBD502C0298525D4882311F080E001C047
:1013A00083E090E59093F10094E09093F1008093B6
:1013B000F1008091E8008E778093E800C85FDE4FEF
:1013C0000FB6F894DEBF0FBECDBFDF91CF911F9156
:1013D0000F91FF90EF90DF90CF90BF90AF90089566
:1013E000CF93DF93CDB7DEB7C750D1400FB6F89497
:1013F000DEBF0FBECDBF40E050E067E070E0CE0141
:101400008F5F9E4F64D6CE5FDE4F8881C250D14041
:10141000CD5FDE4F9881C350D140CC5FDE4F288135
:10142000C450D140CB5FDE4F3881C550D140CE5F34
:10143000DE4F3883C250D140CD5FDE4F2883C3508A
:10144000D140CC5FDE4F9883C450D140CB5FDE4F9C
:101450008883C550D140CA5FDE4F8881C650D140D5
:10146000C95FDE4F9881C750D140CA5FDE4F988375
:10147000C650D140C95FDE4F8883C750D1408091AC
:10148000E8008B778093E8008091A3018F708093B0
:10149000E9008091EC0081608093EC008091A201D2
:1014A000CA5FDE4F28813981C650D140811112C0F8
:1014B000CE5FDE4F688179818A819B81C250D140A5
:1014C000AE014F5F5F4F49D3882311F080E00EC01B
:1014D00083E00CC0A901BE016F5F7F4FCE5FDE4F7E
:1014E00088819981C250D14022D5EECF90E590936A
:1014F000F10095E09093F1008093F10081110BC011
:10150000CA5FDE4F68817981C650D14040E050E02B
:10151000CE01019692D58091E8008E778093E80005
:10152000C95FDE4F0FB6F894DEBF0FBECDBFDF91AF
:10153000CF910895CF93DF931F92CDB7DEB740E0F0
:1015400050E061E070E0CE010196C1D58091E800E5
:101550008B778093E8008091A3018F708093E900DE
:101560008091EC0081608093EC0089818093A201DE
:1015700081E58093F1008981813011F480EC01C014
:1015800080E08093F1008091E8008E778093E800FE
:101590000F90DF91CF910895CF93DF9300D000D0CB
:1015A00000D0CDB7DEB78091F100843009F499C046
:1015B00038F4823091F108F04FC0813051F034C1DD
:1015C000863009F492C008F48EC0873009F4D8C080
:1015D0002BC18091E8008B778093E8008091A30174
:1015E0008F708093E9008091EC0081608093EC0023
:1015F0008091A201811102C02BD205C0823011F46A
:1016000050D401C080E090E59093F10091E0909378
:10161000F10098279093F10002C18091E8008B7748
:101620008093E8008091A3018F708093E9008091FE
:10163000EC0081608093EC008091A201811102C0D6
:1016400046D201C069D480E58093F10082E08093A6
:10165000F1001092F100E3C040E050E065E070E07E
:10166000CE01019634D58A819B812C813D813A83BC
:101670002B839C838D838091E8008B778093E80097
:101680008091A3018F708093E9008091EC008160CC
:101690008093EC008091A201E981811114C0E15096
:1016A000E83028F4F0E0E358FE4F808101C080E08C
:1016B0004A815B816C817D8135D3882311F080E084
:1016C0000BC083E009C0E13011F084E101C080E18A
:1016D0006A817B8195D4F1CF90E59093F10093E0FE
:1016E0009AC0D6DDA1C07CDE9FC040E050E061E042
:1016F00070E0CE010696EBD48091E8008B77809362
:10170000E8008091A3018F708093E9008091EC0044
:1017100081608093EC008091A201811112C08E81C2
:10172000813031F0823011F489E303C088E701C0D1
:1017300088E3BE016F5F7F4FD5D1811104C083E084
:1017400003C081E001C080E090E59093F10096E055
:101750009093F1008093F100811161C089819A8199
:10176000AB81BC81CD01AA27BB278093F100898181
:101770009A81AB81BC818093F100892F99274DC05C
:101780008091F100833041F168F48130A1F0823022
:1017900071F58091F1009091F10090935F01809339
:1017A000600123C08430E9F0853009F58091F100B3
:1017B0008091F1001AC08091F1009091F100209188
:1017C000F1003091F1003093610120936201909318
:1017D00063018093640109C08091F10080935E01F0
:1017E00004C08091F10080935D0180E001C081E040
:1017F0009091E8009B779093E8009091A3019F70EF
:101800009093E9009091EC0091609093EC0090E54A
:101810009093F10097E09093F1008093F100809114
:10182000E8008E778093E80026960FB6F894DEBF26
:101830000FBECDBFDF91CF9108954D99FECF4D9B47
:10184000FECF4D99FECF5B9A539A8091C9008F7E4F
:101850008093C9008091C90088608093C90081E0AD
:101860008093A90108958091C80086FFFCCF8091E4
:10187000C80080648093C8008091C900877F8093EE
:10188000C9008091C90080618093C90053985B981A
:101890001092A90108958091A9018111E4DF80ECE3
:1018A0008093C8001092C9001092CA008AB1877D47
:1018B0008AB98BB1837D8BB908958091A90181117B
:1018C000D2DF8091C800806C8093C8001092C9005C
:1018D0001092CA008AB1877D8AB98BB1837D8BB99A
:1018E00024982C980895CF93DF931F92CDB7DEB73D
:1018F0009091A901911103C089839FDF8981909103
:10190000C80095FFFCCF9091C80090649093C800E8
:101910008093CE000F90DF91CF9108958091A9011F
:101920008111A1DF8091C80087FD03C08AB58111B4
:10193000F9CF8091CE0008958091A901811101C055
:101940007CDF8CE04D99FECF4D9BFECF4D99FECFB5
:101950008150C1F708951092A9018AB188628AB9AD
:1019600052985B9A8FE891E00197F1F700C0000070
:1019700083E090E09093CD008093CC0088E080934A
:10198000C9008FE68093CA00D7DFD6CF1092A90195
:10199000249A2C988FE891E00197F1F700C000009D
:1019A0008AB188628AB9529883E090E09093CD0022
:1019B0008093CC0088E08093C9008FE68093CA00B2
:1019C000BBDFBACF1F93CF93DF9300D0CDB7DEB785
:1019D000182F862F79839A8386DF7981872F83DF7B
:1019E000812F81DF9A81892F0F900F90DF91CF9106
:1019F0001F9179CF0F931F93409161015091620124
:101A000060916301709164018A019B01082BC901F7
:101A1000B8011F910F91D6CF80E865DF7FDF9AB5BF
:101A2000992321F081FFF8CF81E0089580E00895A7
:101A30008BE659DF8FE0DEDF80E255DF6FDF9AB59E
:101A4000992321F087FDF8CF81E0089580E0089583
:101A5000DF92EF92FF920F931F93CF93DF93CDB757
:101A6000DEB728970FB6F894DEBF0FBECDBF73DF89
:101A700081EC39DF89E537DF82EC35DF82E033DF67
:101A800080EE31DF8E01075F1F4FCE0101967C0192
:101A900088E0D82EE5E8F1E0D7018D2D01900D9278
:101AA0008A95E1F7F80182918F011DDF0E151F0560
:101AB00089F728960FB6F894DEBF0FBECDBFDF9131
:101AC000CF911F910F91FF90EF90DF90A5CFA4DFF2
:101AD00081EC09DF80E007DF81E805DF1FDF81118E
:101AE000F7CFD9CE0F931F93CF93DF93182FEB012E
:101AF000188219821A821B829BDF882341F18CE4B1
:101B0000F2DE8AE077DF812FEEDE8CE4ECDE8BE024
:101B100071DF81E0E8DE80DF8823C9F089DF882378
:101B2000B1F08BE6E0DE84E065DF80EADCDE82E0B7
:101B3000DADE84E2D8DE8E010D5F1F4FEFDE89937F
:101B4000C017D107D9F79AB581E0911101C080E0A3
:101B5000DF91CF911F910F910895CF92DF92EF9275
:101B6000FF920F931F93CF93DF936B017C01EA01E8
:101B700089015EDF882361F18CE4B5DE8AE03ADF1B
:101B800083E4B1DE02301105B8F08BE6ACDEC701AC
:101B9000B60118DF80EAA7DE8FEF800FA4DE84E2B3
:101BA000A2DE0C0F1D1FC017D10769F08AB588236C
:101BB00051F0B4DE8993F7CF8CE095DEC701B60112
:101BC00001DFACDE88839AB581E0911101C080E02D
:101BD000DF91CF911F910F91FF90EF90DF90CF9009
:101BE0000895FF920F931F93CF93DF9300D000D0FF
:101BF000CDB7DEB7182FF22E49835A836B837C83CF
:101C000017DF082F882389F08CE46DDE8AE0F2DE8E
:101C1000812F69DE8CE467DE49815A816B817C818A
:101C2000CB01BA01CFDE8F2D5EDE802F0F900F909B
:101C30000F900F90DF91CF911F910F91FF9008951A
:101C40004F925F926F927F928F929F92AF92BF92CC
:101C5000CF92DF92EF92FF920F931F93CF93DF9378
:101C6000C82FD62F842E922E2701380120FF11C0B5
:101C7000DFDE811102C0C0E043C08CE434DE8AE0C4
:101C8000B9DE8D2F30DE8CE42EDE8BE0B3DE81E01A
:101C90002ADEA114B10421F491FC20C0C1E030C0BF
:101CA000C7DE882341F38CE41EDE8AE0A3DE8C2F9E
:101CB0001ADE8BE618DEC301B20184DE80EA13DE91
:101CC0008FEF8A0D10DE84E60EDEE601AC0CBD1C43
:101CD000CA15DB0509F3899106DEFACFA9DEC82F04
:101CE000882309F4C8CF8CE4FEDD8AE083DE882DEA
:101CF000FADD8CE4F8DDC301B20164DE80E0F3DDDF
:101D00008C2FDF91CF911F910F91FF90EF90DF907B
:101D1000CF90BF90AF909F908F907F906F905F908B
:101D20004F9008951F93CF93DF9300D000D0CDB78D
:101D3000DEB7182F49835A836B837C8379DE498110
:101D40005A816B817C81882309F467C08CE410344C
:101D500029F4C9DD8AE04EDE80E440C049835A831D
:101D60006B837C83103309F040C0BDDD8AE042DE26
:101D700086E3B9DD8CE4B7DD8BE03CDE81E0B3DDEA
:101D800057DE882309F449C08CE4ADDD8AE032DEF9
:101D900083E3A9DD8BE6A7DD49815A816B817C81D4
:101DA000CB01BA010FDE80EA9EDD80915F01815098
:101DB0009ADD84E698DD10E0812F90E020915F01AC
:101DC000309160018217930720F480E08CDD1F5F63
:101DD000F3CF8CE488DD8AE00DDE80E384DD8CE4E3
:101DE00082DD8BE007DE81E00FC07DDD8AE002DE70
:101DF000812F79DD8CE477DD49815A816B817C818B
:101E0000CB01BA01DFDD80E06EDD0F900F900F9007
:101E10000F90DF91CF911F91FFCD80E00F900F9039
:101E20000F900F90DF91CF911F910895982F9F7081
:101E300090698073880F892B56CD1F93CF93DF93C2
:101E40001F92CDB7DEB7182F88E699834CDD812F1E
:101E50004ADD89E648DD9981892F0F90DF91CF9186
:101E60001F9141CD80E83FDD59DD9AB5992321F0DE
:101E700081FFF8CF81E0089580E0089590915D01A1
:101E8000892F8F7080619073990F892B2CDD46DD2F
:101E90009AB5992321F087FDF1CF81E0089580E084
:101EA0000895DF92EF92FF920F931F93CF93DF93EA
:101EB000CDB7DEB728970FB6F894DEBF0FBECDBF03
:101EC00065DD82EC10DD82E00EDD80EE0CDD8E0142
:101ED000075F1F4FCE0101967C0188E0D82EEDE808
:101EE000F1E0D7018D2D01900D928A95E1F7F8016F
:101EF00082918F01F8DC0E151F0589F728960FB621
:101F0000F894DEBF0FBECDBFDF91CF911F910F912F
:101F1000FF90EF90DF90A6CFA5DF80ECE4DC80E0BF
:101F2000E2DC80E8E0DCFADC8111F7CFC6CCEF928E
:101F3000FF920F931F93CF93DF93EC017B018A01F4
:101F40009DDF8823D1F080915E0170DF80E0CBDCE3
:101F5000CE0173DFE7010E0D1F1DC017D10741F041
:101F60008AB5882329F084E2BEDCD8DC8993F5CFDA
:101F70009AB581E0911101C080E0DF91CF911F916E
:101F80000F91FF90EF900895CF92DF92FF920F9301
:101F90001F93CF93DF936C018B01EA016FDFF82E63
:101FA000811102C0F12C23C0C0FF06C0F801EC0F64
:101FB000FD1F8FEF8083219680915E0137DF8DE1D9
:101FC00092DCC6013ADF209791F058DF882351F365
:101FD00084E689DCF801808186DC84E684DC0E5F9F
:101FE0001F4FF801319780817EDC2297ECCF8F2D37
:101FF000DF91CF911F910F91FF90DF90CF900895C7
:102000001F93CF93DF93182FEB0138DF882381F0E4
:1020100080915E010BDF812F66DCCE0181600DDFD8
:1020200080E661DC80E05FDCDF91CF911F9126CFFD
:1020300080E0DF91CF911F910895CF92DF92EF92D0
:10204000FF920F931F93CF93DF93EC018B017A01E3
:1020500033D2811133C0E114F10439F0F7018081EA
:102060009181081B190BC80FD91FC12CD12C011548
:10207000110519F18091E80085FD16C08091E800F6
:102080008E778093E80035D4E114F10449F0F7012C
:1020900080819181C80ED91ED182C08285E00EC098
:1020A0000BD2882321F30AC089918093F10001505B
:1020B0001109FFEFCF1ADF0ADACF80E0DF91CF916D
:1020C0001F910F91FF90EF90DF90CF900895CF92E6
:1020D000DF92EF92FF920F931F93CF93DF93EC0168
:1020E0008B017A01E9D1811133C0E114F10439F097
:1020F000F70180819181081B190BC80FD91FC12CD2
:10210000D12C0115110519F18091E80085FD16C04B
:102110008091E8008B778093E800EBD3E114F10421
:1021200049F0F70180819181C80ED91ED182C08209
:1021300085E00EC0C1D1882321F30AC08091F1004F
:10214000899301501109FFEFCF1ADF0ADACF80E03F
:10215000DF91CF911F910F91FF90EF90DF90CF9083
:102160000895CF92DF92EF92FF920F931F93CF9338
:10217000DF93EC018B017A019FD1811139C0980165
:1021800021503109C20FD31FE114F10439F0F701D6
:1021900080819181081B190BC81BD90BC12CD12C34
:1021A0000115110521F18091E80085FD16C080918F
:1021B000E8008B778093E8009CD3E114F10449F0A8
:1021C000F70180819181C80ED91ED182C08285E03D
:1021D0000FC072D1882321F30BC08091F100888356
:1021E000219701501109FFEFCF1ADF0AD9CF80E004
:1021F000DF91CF911F910F91FF90EF90DF90CF90E3
:1022000008952091B2013091B3012617370748F0A5
:102210006115710539F42091E8002E772093E800CC
:1022200001C0B90140E06115710579F12EB3222397
:10223000F1F12530F1F12091E80023FD3CC020911F
:10224000E80022FD2EC02091E80020FFECCF209175
:10225000F20030E0FC01CF016115710559F0203129
:10226000310540F481918093F100615071092F5F35
:102270003F4FF1CF41E02031310509F040E020919E
:10228000E8002E772093E800CECF4111CFCF09C0D0
:102290008EB3882361F0853061F08091E80083FD82
:1022A0000AC08091E80082FFF3CF80E0089582E0C9
:1022B000089583E0089581E008952091B20130915E
:1022C000B3012617370748F06115710539F42091DD
:1022D000E8002E772093E80001C0B901FC0120E05E
:1022E0006115710561F18EB38823D9F18530D9F17B
:1022F0008091E80083FD39C08091E80082FD2BC009
:102300008091E80080FFECCF8091F20090E06115B1
:10231000710559F08031910540F424912093F1002A
:102320003196615071090196F2CF21E0409709F092
:1023300020E08091E8008E778093E800D1CF2111D2
:10234000D2CF09C08EB3882361F0853061F08091CF
:10235000E80083FD0AC08091E80082FFF3CF80E0AF
:10236000089582E0089583E0089581E00895CF9272
:10237000DF92EF92FF920F931F93CF93DF93EB01C6
:102380002091B2013091B3012617370740F0209712
:1023900039F42091E8002E772093E80001C0E9018C
:1023A0008C0180E02097B9F19EB3992309F445C0D0
:1023B000953009F444C09091E80093FD42C090919B
:1023C000E80092FD34C09091E80090FFEBCFC09000
:1023D000F200D12C7601C7018C199D09800F911F45
:1023E000209761F020E1E216F10440F49BD2809343
:1023F000F10021972FEFE21AF20AEDCF8C0181E074
:1024000090E1E916F10409F080E09091E8009E77F0
:102410009093E800C7CF8111C7CF09C08EB388233E
:1024200061F0853061F08091E80083FD0AC0809101
:10243000E80082FFF3CF80E005C082E003C083E0C4
:1024400001C081E0DF91CF911F910F91FF90EF903C
:10245000DF90CF9008958F708093E900EBEEF0E06D
:10246000808181608083EDEEF0E010826093EC006B
:1024700040838091EE00881F8827881F08958091EF
:10248000AC0187FF0FC08091E80082FD04C08EB3CD
:102490008111F9CF10C08091E8008B770AC08EB30C
:1024A000882349F08091E80080FFF9CF8091E8000F
:1024B0008E778093E80008952091E4003091E50044
:1024C00095E64091EC00842F817040FF21C08091FF
:1024D000E80080FD1BC08EB3882391F0853091F019
:1024E0008091EB0085FD10C04091E4005091E50023
:1024F0004217530731F39A01915019F784E0089578
:1025000082E0089583E0089581E0089580E00895D1
:102510004091E80042FFDFCF08953CD03ED080914B
:10252000D8008F778093D8008091D80080688093FE
:10253000D8008091D8008F7D8093D80084E089BD39
:1025400086E089BD09B400FEFDCF1EBA1092AA0133
:1025500042E160E080E07FDF8091E1008E7F809348
:10256000E1008091E20081608093E2008091E200CE
:1025700088608093E2008091E0008E7F8093E0008D
:102580000895E3E6F0E080818E7F808381E0809390
:10259000AB01C3CF1092E20008951092E1000895BC
:1025A0001F920F920FB60F9211242F933F934F93C8
:1025B0005F936F937F938F939F93AF93BF93EF93AB
:1025C000FF938091E10080FF17C08091E20080FFBF
:1025D00013C08091E2008E7F8093E2008091E20040
:1025E00080618093E2008091D80080628093D8005F
:1025F00019BC1EBA0E9446018091E10084FF2FC0E1
:102600008091E20084FF2BC084E089BD86E089BD13
:1026100009B400FEFDCF8091D8008F7D8093D80053
:102620008091E1008F7E8093E1008091E2008F7EB7
:102630008093E2008091E20081608093E2008091CB
:10264000AA01882311F084E007C08091E30087FD90
:1026500002C081E001C083E08EBB0E9444018091F2
:10266000E10083FF21C08091E20083FF1DC08091C3
:10267000E100877F8093E10082E08EBB1092AA0187
:102680008091E1008E7F8093E1008091E2008E7F57
:102690008093E2008091E20080618093E20042E159
:1026A00060E080E0D8DE24D1FF91EF91BF91AF913F
:1026B0009F918F917F916F915F914F913F912F915A
:1026C0000F900FBE0F901F9018951F93CF93DF931D
:1026D00000D01F92CDB7DEB7ECEAF1E088E08E0FB4
:1026E0009091F10091938E13FBCF02D18091E8007D
:1026F00083FFE9C08091AC019091AD01953009F460
:1027000066C030F4913059F168F0933041F1DBC08C
:10271000983009F4AAC0993009F4B9C0963009F08C
:10272000D2C076C0803881F0823809F0CCC0809168
:10273000B0018F708093E9008091EB0085FB8827C2
:1027400080F91092E90001C080E09091E800977F45
:102750009093E8008093F1001092F10091C0282F2F
:102760002D7F09F0B0C0823009F0ADC08091AE017C
:10277000811127C08091B0018F7009F4A4C08093AB
:10278000E9002091EB0020FF1CC0933021F48091E0
:10279000EB00806214C09091EB0090619093EB008D
:1027A00021E030E0A90102C0440F551F8A95E2F7ED
:1027B0004093EA001092EA008091EB0088608093D9
:1027C000EB001092E9008091E800877F5CC08111E6
:1027D0007AC01091AE011F778091E3008078812B41
:1027E0008093E3008091E800877F8093E80047DED4
:1027F0008091E80080FFFCCF8091E30080688093A7
:10280000E300111102C082E001C083E08EBB5BC017
:102810008058823008F057C09E012D5F3F4FAE01B7
:102820004F5F5F4F6091B0018091AE019091AF0119
:102830000E948B01BC01892B09F445C08091E800FE
:10284000877F8093E8002B8189819A81211102C0C2
:1028500034DD05C0213011F48ADD01C0D2DC809165
:10286000E8008B778093E8002EC0803861F5809176
:10287000E800877F8093E8008091AA018093F100AF
:102880008091E8008E778093E800F9DD1CC081110B
:102890001AC09091AE019230B0F48091E800877F29
:1028A0008093E8009093AA01EADD8091AA0181114A
:1028B00006C08091E30087FD02C081E001C084E092
:1028C0008EBB0E9448018091E80083FF0AC080917E
:1028D000E800877F8093E8008091EB00806280931E
:1028E000EB000F900F900F90DF91CF911F91089503
:1028F0000895CF938EB3882399F0C091E900CF70EB
:102900009091EC00892F817090FD80E8C82B109287
:10291000E9008091E80083FDD8DECF70C093E90024
:10292000CF910895F999FECF92BD81BDF89A99276C
:1029300080B50895262FF999FECF92BD81BDF89AF2
:10294000019700B4021639F01FBA20BD0FB6F894F3
:0C295000FA9AF99A0FBE0895F894FFCF90
:10295C001C033000300030003200300030003000FA
:10296C003100320033003400350000000000090251
:10297C002000010100C0320904000002FF00000029
:10298C000705000240000A0705020240000A800108
:10299C000081010090010091010192011894012124
:1029AC009803069E0301A10100A403000132332009
:1029BC0000C0010001010101000001262636262677
:1029CC0026232333232323242C354C081A40206838
:1029DC0030222A32181289AB45CDD888FF1289AB28
:1029EC0045CDD888FF4156524953505F4D4B32006C
:00000001FF
