S01200004D656D6F7279436F70792E73726563FE
S11300000C94FE000C9412010C9412010C94120135
S11300100C9412010C9412010C9426020C941201FB
S11300200C9412010C9412010C9412010C94120100
S11300300C9412010C9412010C9412010C941201F0
S11300400C9412010C9412010C9412010C941201E0
S11300500C9412010C9412010C9412010C941201D0
S11300600C9412010C9412010C9412010C941201C0
S11300700C9412010C9412010C9412010C941201B0
S11300800C9412010C9412010C9412010C941201A0
S11300900C9412010C9412010C9412010C94120190
S11300A00C9412010C9412010C9412010C94120180
S11300B00C9412010C9412010C9412010C94120170
S11300C00C9412010C9412010C9412010C94120160
S11300D00C9412010C9412010C9412010C94120150
S11300E00C9412010C9412010C9412010C94120140
S11300F00C9412010C9412010C9412010C94120130
S11301000C9412010C9412010C9412010C9412011F
S11301100C9412010C9412010C9412010C9412010F
S11301200C9412010C9412010C9412010C941201FF
S11301300C9412010C9412010C9412010C941201EF
S11301400C9412010C9412010C9412010C941201DF
S11301500C9412010C9412010C9412010C941201CF
S11301600C9412010C9412010C9412010C941201BF
S11301700C9412010C9412010C9412010C941201AF
S11301800C9412010C9412010C9412010C9412019F
S11301900C9412010C9412010C9412010C9412018F
S11301A00C9412010C9412010C9412010C9412017F
S11301B00C9412010C9412010C9412010C9412016F
S11301C00C9412010C9412010C9412010C9412015F
S11301D00C9412010C9412010C9412010C9412014F
S11301E00C9412010C9412010C9412010C9412013F
S11301F00C9412010C9412010C94120111241FBED0
S1130200CFEFCDBFDFE5DEBF00E00CBF20E2A0E012
S1130210B0E201C01D92AA3CB207E1F70E94C301FB
S11302200C9449020C940000FC01818180730895B0
S1130230FC019081906890830895FC019181907FE6
S1130240492B462B418308958F92AF92BF92CF9250
S1130250EF920F931F93CF93DF93CDB7DEB7FC01DB
S1130260608771871286048715871686CE282C2905
S1130270422B4283A482B58280818C7D88299E850D
S1130280992371F0806280838D858683DF91CF917D
S11302901F910F91EF90CF90BF90AF908F900895E2
S11302A08083F4CFFC0190819061908308956F92D4
S11302B07F928F92AF92BF92CF92EF920F931F9340
S11302C0CF93DF933C018B015A01E901C9010E94DC
S11302D018011F921F9283E0882ECC24C394E12C32
S11302E020E140E0B301CE010E9424010F900F9061
S11302F0CE01DF91CF911F910F91EF90CF90BF90DE
S1130300AF908F907F906F900C9452016F927F9278
S11303108F92AF92BF92CF92EF920F931F93CF938E
S1130320DF933C018B015A01E901C9010E941801C4
S11303301F921F9283E0882ECC24C394E12C20E1E9
S113034040E0B301CE010E942401CE010E9452017B
S11303500F900F90CE010E9414018823D9F390913D
S11303601101982B9093110185FB882780F9DF9167
S1130370CF911F910F91EF90CF90BF90AF908F903E
S11303807F906F9008958FEF80938006809384060A
S113039080910001806880930001C6E6D0E2FE01EE
S11303A08E2F8C1B819380E2EA3CF807C9F720E189
S11303B031E044E650E061E070E286E690E20E94BB
S11303C0860180930020809100208823B1F110924F
S11303D0840644E061E080E191E00E941D01809187
S11303E0A20081608093A2008FEF899381508B39A2
S11303F0E1F7109265201092002080910301816141
S113040080930301789420E131E044E650E061E018
S113041070E286E690E20E94570190E1909387068D
S11304200000809165208823C9F3809100208823EF
S113043041F0109284060000FECF8EEF8093840674
S1130440C8CF8DEF809384060000FECF1F920F92D9
S11304500FB60F9211248F938091030180FD11C078
S11304608091030180618093030181E080930020E7
S113047081E0809365208F910F900FBE0F901F90A5
S113048018958091030181608093030110920020EC
S1090490EFCFF894FFCF4A
S9030000FC
