:1000000004C1000028C1000026C1000024C1000076
:1000100022C1000020C100001EC100001CC1000060
:100020001AC1000018C1000016C1000014C1000070
:1000300012C1000010C100000EC100000CC1000080
:100040000AC1000008C1000006C1000004C1000090
:1000500002C1000000C10000FEC00000FCC00000A2
:10006000FAC000000C946A120C94B812F4C000009C
:10007000F2C00000F0C00000EEC00000ECC00000C4
:10008000EAC00000E8C00000E6C00000E4C00000D4
:10009000E2C00000E0C00000DEC00000DCC00000E4
:1000A000DAC00000D8C00000D6C00000D4C00000F4
:1000B000D2C00000D0C00000CEC00000CCC0000004
:1000C000CAC00000C8C00000C6C00000C4C0000014
:1000D000C2C00000C0C00000BEC00000BCC0000024
:1000E000BAC00000B8C00000B6C00000B4C0000034
:1000F000B2C00000B0C00000AEC00000ACC0000044
:10010000AAC00000A8C00000A6C00000A4C0000053
:10011000A2C00000A0C000009EC000009CC0000063
:100120009AC0000098C0000096C0000094C0000073
:1001300092C0000090C000008EC000008CC0000083
:100140008AC0000088C0000086C0000084C0000093
:1001500082C0000080C000007EC000007CC00000A3
:100160007AC0000078C0000076C0000074C00000B3
:1001700072C0000070C000006EC000006CC00000C3
:100180006AC0000068C0000066C0000064C00000D3
:1001900062C0000060C000005EC000005CC00000E3
:1001A0005AC0000058C0000056C0000054C00000F3
:1001B00052C0000050C000004EC000004CC0000003
:1001C0004AC0000048C0000046C0000044C0000013
:1001D00042C0000040C000003EC000003CC0000023
:1001E0003AC0000038C0000036C0000034C0000033
:1001F00032C000000C94B80F0C947A10D60AD90AB9
:10020000DC0ADF0AE20AE50AE80A11241FBECFEF82
:10021000CDBFDFE3DEBF00E00CBF18BE19BE1ABEC3
:100220001BBE10E2A0E0B0E2E6E8F6E200E00BBFA1
:1002300002C007900D92AC3BB107D9F71BBE27E275
:10024000ACEBB0E201C01D92A833B207E1F70E9407
:1002500080110C944113D4CEE0E0F6E081E0868377
:1002600082E0858384E0858380E1858380E28583E5
:1002700080E4858380E885830895E0E0F6E081E00E
:10028000858382E0858384E0858380E1858380E2C5
:10029000858380E4858380E88583089581E0809369
:1002A0000606089584E0809306060895E0E0F6E0EF
:1002B00084E0858380E1858380E2858380E4858393
:1002C00080E88583089580E180930606089580E1A3
:1002D00080930506089580E280930606089580E2E3
:1002E00080930506089580E480930606089580E8CB
:1002F000809306060895009721F482E08093060615
:100300000895883E934019F482E08093050608958D
:100310000F931F93CF93DF9300D01F92CDB7DEB71B
:100320008FEF8093700080937100809372008093B0
:10033000730080937400809375008093760064E06E
:1003400081E490E00E94D5096CE170E082E00E94B7
:10035000DB098A836DE170E082E00E94DB0989831A
:1003600089819A81019621F480E493E289839A83BA
:1003700089819A818B839C83E0E6F0E082838C8183
:1003800083839FB7F894E0E5F0E08081826080830A
:100390009FBF818181FFFDCF9FB7F89400E510E0FA
:1003A000D80116968C911697897F16968C9316977E
:1003B000E0E6F0E080E885838BEB868316968C91EF
:1003C0001697846016968C938081816080839FBF8E
:1003D00061E080E490E0E9D79FB7F894F80180816C
:1003E0008E7F80839FBF2496CDBFDEBFDF91CF91EC
:1003F0001F910F9108959FB7F894E82FF0E0E0590E
:10040000FF4F60958081682360839FBF08959FB7E9
:10041000F894E82FF0E0E059FF4F8081682B60836B
:100420009FBF0895863011F060E001C068E18091BF
:10043000510081FD26C09FB7F894E0E5F0E080818F
:10044000826080839FBF818181FFFDCF9FB7F89439
:10045000A0E5B0E016968C911697897F16968C933E
:100460001697E0E6F0E080E885838BEB86831696AE
:100470008C911697846016968C938081816080831E
:100480009FBF636084E490E090D760E480E0B3CFE6
:100490000895CF93DF93FC01709620E030E0C62FE3
:1004A000D0E0DE01022E02C0B595A7950A94E2F7CE
:1004B000A0FD50832F5F3F4F31962830310589F7DB
:1004C00040FF0AC041FF03C0FC01658302C0FC017C
:1004D0006683FC01618302C0FC016283DF91CF91DE
:1004E00008958091D22581508093D225089580E08F
:1004F000089580E0089562EE75E280E00C94DD11CD
:1005000008951092D2251092DE251092DF25E4ED99
:10051000F5E281EA808380E2818312821382148271
:10052000158282E090E08683978310861186E2EE42
:10053000F5E280E092ECA1E0B0E080839183A283B9
:10054000B3831482158288E08683BF0180E00E9415
:10055000DD1180E00E94CB11882329F09091D225F3
:100560009F5F9093D2250895FF920F931F93CF938F
:10057000DF938091BF2081119BC00E948B0D882347
:1005800051F0C091C020D091C1200E94980DC81791
:10059000D90759F48DC0C091C020D091C1200E94CC
:1005A000930DC817D90709F483C0DFB7F894C09139
:1005B000C220EC2FF0E0EE0FFF1FED53FF4D8081C6
:1005C0009181892B09F58091BC209091BD200196E5
:1005D0008093BC209093BD200E948B0D811107C099
:1005E0008091BC209091BD208436910558F00E94E6
:1005F0008B0D882349F08091BC209091BD208032E2
:10060000934010F4DFBF54C01092BC201092BD2064
:100610008091BE20811106C081E0C11180E08093ED
:10062000C22004C081E0C11180E0C82F81E0809326
:10063000BF20DFBFD0E0FE01EE0FFF1FED53FF4DE7
:10064000FF24F394808191818034914009F4F12C4E
:10065000FF2091F00E948B0D882339F00E94980DA5
:100660008093C0209093C1200BC00E94930D809373
:10067000C0209093C12004C01092C0201092C120CD
:10068000FE01EE0FFF1FED53FF4D2081318180E40D
:1006900091E0C89FA001C99F500DD89F500D112413
:1006A00048535F4D0EE513E06F2D81E80E947C0EEC
:1006B000DF91CF911F910F91FF900895811115C087
:1006C0002091C22081E090E0222311F080E090E0B0
:1006D000880F991FFC01ED53FF4D1082118210927B
:1006E000BE201092BF2080E03FCF089580E03CCF35
:1006F00008950F931F938091E02581111FC02091D1
:10070000DE253091DF258091DC259091DD252817AD
:100710003907A1F0862F2091DE253091DF25209327
:10072000DC253093DD2501EC13E02AE030E044EDD8
:1007300055E260E00E947C0E8093E0251F910F91AE
:1007400008952FB7F894662359F08091DE25909193
:10075000DF25482B592B4093DE255093DF250CC015
:100760008091DE259091DF254095509548235923AF
:100770004093DE255093DF252FBF62E880E0B9CF9C
:1007800008951092E0258091DE259091DF258378F1
:100790008093DE259093DF25E4EDF5E28085918559
:1007A000837880879187642F80E0A3CF089580911C
:1007B000D12581508093D1258091D1250E94D111DE
:1007C0001092D0250895809128278823CCF4807634
:1007D0008032F1F5809129278132E1F580912E2731
:1007E00090912F270797C1F5E8E2F7E282EE95E2B4
:1007F0008087918787E090E08287938781E00895E2
:100800008076803259F580912927803219F0823222
:10081000B9F026C080912E2790912F27079711F5C8
:10082000E8E2F7E28BE792E08487958782EE95E233
:100830008087918787E090E08287938781E00895A1
:1008400060912A27617080E00E94D51181E00895AF
:1008500080E0089580E0089580E0089580E00895A4
:1008600080E0089580E0089540E150E061E080E09C
:1008700068CF089540E450E061E080E062CF0895E1
:100880004FB7F8942091492330914A23E0914B23AC
:10089000F0E0EE0FFF1FE45BFC4D808191814FBFC4
:1008A000821B930B0895ECDF21E0892B09F420E0F3
:1008B000822F08950F931F93CF93DF939FB7F894E0
:1008C00020914B2380914823811110C060914923CE
:1008D00070914A23C22FD0E0FE01EE0FFF1FE45BB0
:1008E000FC4D408151816417750718F49FBF80E06B
:1008F00027C01092492310924A2381E0211180E001
:1009000080934B2381E0809348239FBF80E0CBDF1F
:10091000882319F080E00E94621280E491E0C89F71
:10092000A001C99F500DD89F500D1124405B5C4D14
:1009300007ED14E020E431E061E082E00E947C0EEB
:10094000DF91CF911F910F9108951092D1251092B0
:10095000BF201092BE201092C220E3ECF0E2108281
:100960001182128213821092C0201092C12080E066
:10097000FBDD1092482310924B23ECE4F3E210824B
:100980001182128213821092492310924A2380E02E
:1009900091DF882359F09091D1259F5F9093D125C5
:1009A0009091D125913011F49093D02508950F9313
:1009B0001F93811126C080914B23E1E08111E0E07B
:1009C000842F6115710591F4F0E020E431E0E29F9D
:1009D000A001E39F500DF29F500D1124405B5C4D30
:1009E00007ED14E061E00E947C0E0BC0F0E0EE0F1A
:1009F000FF1FE45BFC4D608371831092482380E00D
:100A000059DF1F910F91089580E04DCF0895EF9227
:100A1000FF921F93CF93DF9311E08091E8258930F7
:100A200009F010E0A0E0B0E0C0E4D1E06FB7F894C6
:100A30002091492330914A2380914B2390E0FC017F
:100A4000EE0FFF1FE45BFC4D408151816FBF241707
:100A5000350730F08091D0258111E8CF90E01EC09D
:100A60008C9FF0018D9FF00D9C9FF00D1124E20FE3
:100A7000F31FE05BFC4D80817D01E82A2F5F3F4F33
:100A80002093492330934A2380E014DF112321F07F
:100A9000BE2DAA2710E0CACF8E2D9F2DDF91CF91BA
:100AA0001F91FF90EF90089580E0B1CF08959FB718
:100AB000F8948091C220E82FF0E0EE0FFF1FED5375
:100AC000FF4D20813181203441E0340789F4409189
:100AD000BF2041110DC04091BE20411109C021E04D
:100AE0002093BE20811120E02093C22020E030E03E
:100AF0009FBF80E491E0821B930B0895D8DF21E033
:100B0000892B09F420E0822F089580E0F7CF089523
:100B1000FF920F931F93CF93DF93F62E172F01E0D1
:100B20008091E825893009F000E0C0E4D1E080E060
:100B3000E5DF811107C08091D0258111F8CF80E0D9
:100B400090E028C04FB7F8942091C22030E0F9011E
:100B5000EE0FFF1FED53FF4D80819181BC016F5F50
:100B60007F4F608371832C9FF0012D9FF00D3C9F80
:100B7000F00D11248E0F9F1FFC01E853FF4DF082F2
:100B80004FBF002329F0F12E110F110B00E0CFCF42
:100B900081E090E0DF91CF911F910F91FF90089538
:100BA000BC0180E0B5CF0895E091EE25F091EF25EE
:100BB0000190F081E02D228133812E0F3F1FFC0137
:100BC0004081E40FF11DE217F307B8F4818184300E
:100BD000B9F0861309C005C081818430A1F0861365
:100BE00003C08E2F9F2F08958081E80FF11DE2171B
:100BF000F30790F380E090E0089580E090E008959E
:100C000080E090E0089580E090E0089580912A27A8
:100C10008F7783C708959091F025992381F1E09112
:100C2000EE25F091EF250190F081E02D9481891758
:100C300040F5E093EC25F093ED25228133812E0FD2
:100C40003F1FE217F307F8F49181943061F4928129
:100C5000981309C09381961306C0E093EC25F09396
:100C6000ED2581E008959081E90FF11DE217F3076A
:100C700058F3E093EC25F093ED2580E0089580E0B3
:100C8000089580E0089580E00895EF92FF921F9309
:100C9000CF93DF93C82F60E0BEDF182F882381F148
:100CA000A091EE25B091EF25EC2FF0E0EE0FFF1FA5
:100CB00012968D919C911397E80FF91FE080F180B7
:100CC000D7011696ED91FC9117971995682F8C2FE7
:100CD000A2DF182F8823A1F0C091EC25D091ED253B
:100CE00065E0CE0161DFEC01892B21F08A810E9451
:100CF0007F0FF6CFD7011296ED91FC9113971995BE
:100D0000812FDF91CF911F91FF90EF9008951F9356
:100D1000CF93DF93182F7FDF882339F1C091EC2523
:100D2000D091ED2565E0CE013FDFEC01892B41F04C
:100D30004C815D816B818A8105D78111F3CF15C00C
:100D4000A091EE25B091EF25E12FF0E0EE0FFF1F0F
:100D500012968D919C911397E80FF91F0190F081E5
:100D6000E02D0190F081E02D1995DF91CF911F9139
:100D700008955EC60895CF938091F0258823C1F031
:100D8000E091EE25F091EF250190F081E02D848136
:100D9000882371F0C0E08C2F78DFCF5FE091EE25E3
:100DA000F091EF250190F081E02D8481C81798F330
:100DB0001092F02581E090E08093F4259093F52542
:100DC000CF910895CF938091F025882349F1A09188
:100DD000EE25B091EF25ED91FC9111978481882348
:100DE000F9F0C0E0EC2FF0E0EE0FFF1F12968D91AE
:100DF0009C911397E80FF91F0190F081E02D00847A
:100E0000F185E02D309709F01995CF5FA091EE257F
:100E1000B091EF25ED91FC9111978481C81710F3E3
:100E2000CF9108950F931F93CF93DF93E8E2F7E2FA
:100E30001286138614861586168617868081882367
:100E40000CF05AC220912E2730912F272115310501
:100E500009F057C24DC28F7109F0A3C090912927A4
:100E6000963079F0983009F492C091119AC02230EE
:100E7000310509F0C6C162E070E084EF95E25BD60F
:100E800045C280912A2790912B27292F3327223082
:100E90003105A9F024F42130310541F0A9C12330F6
:100EA0003105D9F12F30310551F1A2C180911A20BD
:100EB00090911B20DC016C9170E03DD659C0E0910F
:100EC0001A20F0911B202189821708F09AC19927D6
:100ED000880F991F880F991FE0911C20F0911D2009
:100EE000E80FF91F80819181FC016281738123D613
:100EF000E0913027F091312782E0818339C08091E1
:100F00001E2090911F20009709F47BC1DC011296EE
:100F10006D917C9113970FD62BC099278130910545
:100F200071F038F0029709F06CC18EE990E22FE081
:100F300009C064E070E088EB90E2FDD519C08EEA4C
:100F400090E229E0382FA0E8B0E2E82FF92F819154
:100F500090E08D939D938E2F831B8217C0F3622F99
:100F6000660F6E5F60937E2070E08EE790E2E3D5BF
:100F7000E8E2F7E28681978122853385821793071D
:100F800008F0C4C18093322790933327BFC121302A
:100F9000310509F036C161E070E080EF95E2CBD514
:100FA000B5C18130E1F5909129279A30C1F5213002
:100FB000310509F026C18091F025882309F421C16B
:100FC000C0912C27D0912D270091EE251091EF256F
:100FD000D801ED91FC918481C81708F012C160E03E
:100FE0008C2F19DE882309F40CC1CE019927880FB4
:100FF000991FD8011296ED91FC911397E80FF91FF4
:101000000190F081E02D86819781FC0119958093F4
:10101000F22561E070E082EF95E28DD577C18230F4
:1010200009F0EFC0809129278111E4C022303105F9
:1010300009F0E7C080912C270DD690E08093EA2537
:101040009093EB2562E070E08AEE95E274D55EC184
:101050008F7109F083C090912927933009F4CCC097
:1010600018F49130A1F07AC0953019F0993039F127
:1010700075C080912E2790912F27892B09F0C1C030
:1010800086E096E080933427909335273FC1809186
:101090002E2790912F27892B09F0B3C080912A2702
:1010A00090912B27019709F0ACC08091F425909185
:1010B000F5258D7F8093F4259093F52527C18091A8
:1010C0002E2790912F27892B09F09BC029D58823A3
:1010D00009F497C020912A2730912B273327E091DC
:1010E0001A20F0911B20818990E08217930708F461
:1010F00088C041DE80912A2790912B278093F0258C
:10110000882309F403C199278150904C880F991FB7
:10111000880F991FE0911C20F0911D20E80FF91F06
:10112000E093EE25F093EF250190F081E02D84818E
:10113000882309F4EBC0C0E060E08C2FE8DD882351
:1011400009F45FC0CF5FE091EE25F091EF250190AB
:10115000F081E02D8481C81778F3D8C08130E1F4A4
:10116000909129279B30C1F480912E2790912F27B1
:10117000892B09F046C08091F025882309F441C0ED
:10118000E8E2F7E2C481D2818C2F7FDD8823C9F1A8
:101190006D2F8C2FBCDD33C0823099F580912927CB
:1011A000813019F0833089F029C080912E279091E9
:1011B0002F27892B31F580912A2790912B27892B76
:1011C00001F580912C2761D51AC080912E2790912E
:1011D0002F27892BB1F480912A2790912B27892BD7
:1011E00081F4C8E2D7E28C8141D68C81A4D607C0B5
:1011F00080E005C080E003C080E001C080E0811194
:1012000086C0809128278F71813071F58091F025FB
:10121000882351F100912C2710912D27C091EE25A4
:10122000D091EF25E881F98184810817E8F460E026
:10123000802FF1DC8823C1F0F801FF27CF01880F50
:10124000991FEA81FB81E80FF91FC081D181EE81EE
:10125000FF811995682F802FDEDC882329F0EC812F
:10126000FD811995811153C0809128278F7182309B
:1012700009F040C08091F0258823B1F1A091EE25BE
:10128000B091EF25ED91FC9111978481882371F144
:10129000C0E0EC2FF0E0EE0FFF1F12968D919C91B5
:1012A0001397E80FF91F00811181D8011696ED916F
:1012B000FC9117971995682F8C2FADDC882339F195
:1012C000D8011496ED91FC911597199581111FC0C5
:1012D000CF5FA091EE25B091EF25ED91FC91119794
:1012E0009481C917B0F213C080E011C080E00FC034
:1012F00080E00DC080E00BC0982F907609F081CF80
:10130000A7CE982F907609F07CCFA5CD81E0DF9114
:10131000CF911F910F91089543E050E061E080E08C
:1013200096E0B7D843E050E062E080E096E0B1D8C4
:1013300043E050E064E080E096E0ABD843E050E06A
:1013400068E080E096E0A5D843E050E060E180E00E
:1013500096E09FD843E050E060E280E096E099D8C4
:1013600043E050E060E480E096E093D843E050E052
:1013700060E880E096E08DD840E058E161E080E2EE
:1013800096E087D840E058E162E080E296E081D8BC
:1013900040E058E164E080E296E07BD840E058E12C
:1013A00068E080E296E075C808951BBEFC0128ED58
:1013B00024BF608308954091CA01E62FF72F8093E0
:1013C000CA0184914093CA010895811122C090916D
:1013D00020279923D9F090912327911101C0FFCFA5
:1013E0002FB7F894E2E2F7E29181915091832FBFF9
:1013F0000DC0909123279F3F09F4FFCF2FB7F8949A
:10140000E2E2F7E291819F5F91832FBF80932027D3
:10141000089590912027992361F3F8CF0F93E8EC7A
:10142000F4E080818F7D808380818F7D8083E4EFF5
:10143000F6E202E005931092F6261092F72600E2FB
:10144000069300E40693ECEEF6E200E2069300E475
:101450000693E8E2F7E2148615861686178612864A
:1014600013861092DF260F9108950F9385E08093E5
:10147000DF26E5EFF6E204E00593EDEEF6E204E0A8
:1014800005930F9108950F9383E08093DF261092C8
:10149000F6261092F726E4EFF6E202E006930F91AB
:1014A0000895E0913427F0913527309709F0199588
:1014B00008950F93CF93DF938091DF26833019F443
:1014C000F0DFACDF5EC08091DB269091DC26C0911E
:1014D0003227D0913327C81BD90B71F52091DD2617
:1014E0003091DE26820F931F8093DD269093DE26B7
:1014F00020912E2730912F278217930721F080917A
:10150000F625882341F084E08093DF26ECEEF6E2B6
:1015100002E0069336C0E0913627F09137273097E6
:1015200099F01995882381F01092DB261092DC2621
:10153000C0913227D0913327C034D10528F01092C2
:10154000F625C0E4D0E003C081E08093F625E0EE0C
:10155000F6E2C68BD78B8091DB269091DC2620911A
:10156000302730913127280F391F208F318FC80F36
:10157000D91FC093DB26D093DC26E4EFF6E202E02D
:101580000693DF91CF910F910895FC018181E82F9F
:10159000E7708E2F90E0FC013197E730F105D8F429
:1015A0008827E250FF4F8F4F0C942F1380E190E07B
:1015B000089580E290E0089580E490E0089580E846
:1015C00090E0089580E091E0089580E092E0089531
:1015D0008FEF93E0089588E090E00895282F2F7012
:1015E00030E0220F331F082E000C990B8827990F2B
:1015F000881F9927820F931F02979C01220F331F88
:10160000220F331F220F331F820F931F8958994DCA
:1016100008950F93CF938091CC0480FF62C081E046
:101620008093CC04ECEEF6E200E80693E4EFF6E2F9
:1016300000E806938093CA04ECEEF6E200E106931C
:101640008091DF26882329F08350823008F429DF37
:10165000E5DE8091EE269091EF26089709F043C0D1
:1016600088E0EBE9F6E2A8E2B7E201900D928A95F4
:10167000E1F7E8ECF4E08081806280838081806221
:101680008083D0DBC82F811103C0EFDEC1E02CC006
:101690008091282788236CF41092DD261092DE2694
:1016A0001092DB261092DC2682E08093DF2601DF99
:1016B0001BC080912E2790912F27892B11F4E3DEF8
:1016C00013C01092DD261092DE261092DB261092B7
:1016D000DC2681E08093DF26ECEEF6E202E0069362
:1016E00003C0C0E001C0C1E08C2FCF910F910895DD
:1016F0008F929F92AF92BF92DF92EF92FF920F93E1
:101700001F93CF93DF93D82E69DF8C01BD2CBB1CB8
:10171000BB24BB1CCD2DCF70D0E0CC0FDD1FCB0D7B
:10172000D11DCE01880F991F880F991F880F991F0F
:101730009C012451394D7901C90127DF4C01BB209F
:1017400009F479C0FE01EE0FFF1FEE0FFF1FEE0F31
:10175000FF1FE052F94D22893389D80115968D91EA
:101760009C911697820F931F15968D939C931697B5
:1017700013962D913C9114978217930709F445C055
:10178000281B390B2115B4E03B0738F02FEF33E06D
:10179000C901B4012ED7281B390BF801808181FFC4
:1017A00009C0C901B40125D741E0892B09F040E007
:1017B000842F01C080E0D8019C9180FB91F99C931B
:1017C000FE01EE0FFF1FEE0FFF1FEE0FFF1FE05297
:1017D000F94D128A138A2687378711962D913C91ED
:1017E000129715968D919C911697820F931FCC0F8F
:1017F000DD1FCC0FDD1FCC0FDD1FC051D94D8883FD
:101800009983F70102E00693E4C0D8018C9181FF2F
:10181000CDC08D7F8C93CC0FDD1FCC0FDD1FCC0F87
:10182000DD1FC052D94D1A8A1B8A1E861F86F701FA
:1018300002E00693CEC0FE01EE0FFF1FEE0FFF1F6A
:10184000EE0FFF1FE052F94DA684B784D8018C91AA
:1018500082FF19C01196ED91FC91129715962D916A
:101860003C91169713968D919C911497B401C1D613
:10187000B0E4DB9EB001112469547A4DAC01CF0174
:10188000820F931FF5D6F801258136812A0D3B1D65
:1018900025833683838194818217930768F4858337
:1018A0009683CC0FDD1FCC0FDD1FCC0FDD1FC05288
:1018B000D94D8A899B897AC0FE01EE0FFF1FEE0F7A
:1018C000FF1FEE0FFF1FE052F94D428953894A1561
:1018D0005B0509F06BC02817390709F467C0AC0134
:1018E000421B530B9A01211554E0350750F02FEF9E
:1018F00033E0C901B4017DD6D901A81BB90BCD01D4
:1019000007C0C901B40175D6F901E81BF90BCF0175
:10191000FE01EE0FFF1FEE0FFF1FEE0FFF1FE05245
:10192000F94D168617868815990500F5D8018C9112
:1019300084608C93B0E4DB9EC001112489549A4DDD
:10194000FE01EE0FFF1FEE0FFF1FEE0FFF1FE05116
:10195000F94D80839183CC0FDD1FCC0FDD1FCC0FA1
:10196000DD1FC052D94D8A8A9B8A1CC0F801418173
:10197000528125813681240F351FFE01EE0FFF1F96
:10198000EE0FFF1FEE0FFF1FE051F94D2083318353
:10199000CC0FDD1FCC0FDD1FCC0FDD1FC052D94D8A
:1019A0008A8B9B8BF70102E0069313C0D8018C91C0
:1019B00080FF0FC08E7F8C931796ED91FC91189746
:1019C000309739F015966D917C9116974D2D80E0EA
:1019D0001995DF91CF911F910F91FF90EF90DF90BC
:1019E000BF90AF909F908F900895CF93CFB7F8940A
:1019F00081E0EBDCEAECF4E080E4808380E2808349
:101A0000E1ECF4E0808181608083A9ECB4E08C910A
:101A100082608C93E8ECF4E08081806480838C9118
:101A200081608C93808180688083CFBFCF9108953F
:101A3000CF93DF93C0E6D0E0188280E30E941202C9
:101A4000E0ECF4E080818064808381E08883CFB71C
:101A5000F894E0EEF6E21586158A158E15A215A605
:101A600015AAE7E7F6E280818E7F8083E0E8F6E260
:101A700080818E7F8083E9E8F6E280818E7F80839B
:101A8000E2E9F6E280818E7F80836AE170E082E0A5
:101A900092DC8F3F19F08093FA0403C08FE18093AA
:101AA000FA046BE170E082E086DC8F3F19F08093EE
:101AB000FB0403C08FE18093FB04E0ECF4E0808141
:101AC0008260808380818068808380818061808360
:101AD0008CEE96E2868397838081806280838FEF8D
:101AE0008093C504E8ECF4E08081816080831092EB
:101AF0002027809127278F3F09F4FFCF9FB7F894C5
:101B0000E2E2F7E285818F5F85839FBF6EDFCFBF03
:101B1000DF91CF91089580E008958093C3040895E4
:101B20008091C304089580911C2790911D270895EA
:101B300080E090E00895E8E2F7E28087918762878D
:101B400073870895282F2F7030E0220F331F082E3F
:101B5000000C990B8827990F881F9927820F931FD4
:101B6000FC01EE0FFF1FEE0FFF1FEE0FFF1FE052F5
:101B7000F94D2585207C09F069C06370613011F052
:101B800018F404C020EC03C020E801C020E4403871
:101B90005105E9F050F440325105A9F040345105A7
:101BA000A1F040315105D9F40CC0411532E0530782
:101BB00091F04F3F33E0530781F04115514079F4E4
:101BC00008C041E00DC042E00BC043E009C044E062
:101BD00007C045E005C046E003C047E001C040E063
:101BE000FC01EE0FFF1FEE0FFF1FEE0FFF1FE05275
:101BF000F94D158636E03487242B2587FC01EE0F3E
:101C0000FF1FEE0FFF1FEE0FFF1FE052F94D25855E
:101C1000207C203C69F4FC01EE0FFF1FEE0FFF1F3C
:101C2000EE0FFF1FE052F94D25852770273081F018
:101C3000880F991F880F991F880F991FFC01E05288
:101C4000F94D85858062858781E0089580E008955B
:101C500081E00895E82FEF70F0E0EE0FFF1F082EEF
:101C6000000C990B8827990F881F9927E80FF91FF7
:101C7000EE0FFF1FEE0FFF1FEE0FFF1FE052F94D9B
:101C8000858582FB882780F908950F93282F2F7070
:101C900030E0A901440F551F282F082E000C330BEC
:101CA0002227330F221F3327240F351FA901440F8A
:101CB000551F440F551F440F551FFA01E451F94DAC
:101CC00001E00693FA01E052F94D958592FF11C0AB
:101CD000FA01E052F94D95859B7F95877FDCFC01E9
:101CE000808180FF06C08E7F80830780F085E02D95
:101CF000199581E00F9108957F928F929F92AF92F4
:101D0000BF92CF92DF92EF92FF920F931F93CF93E8
:101D1000DF93982E862E6A01790160DC5C01792CB4
:101D2000771C7724771CC92DCF70D0E0CC0FDD1F36
:101D3000C70DD11DFE01EE0FFF1FEE0FFF1FEE0FAF
:101D4000FF1FE052F94D8585807C09F47DC0FE01BE
:101D5000EE0FFF1FEE0FFF1FEE0FFF1FE052F94DBA
:101D60008585807C803C61F0FE01EE0FFF1FEE0F49
:101D7000FF1FEE0FFF1FE052F94D858582FD66C003
:101D80008FB7F894F501908190FF03C08FBF712C3D
:101D90005EC0F5019081916090838FBFC182D28235
:101DA000E382F4821582168207831087811006C0B1
:101DB00091E0E114F10419F090E001C091E0F50127
:101DC000808190FB81F98B7F8083772059F0CC0F45
:101DD000DD1FCC0FDD1FCC0FDD1FC052D94D1A8A7D
:101DE0001B8A2DC0FE01EE0FFF1FEE0FFF1FEE0F2F
:101DF000FF1FE052F94D8585807C803CA1F4CE0127
:101E0000880F991F880F991F880F991F8451994D2A
:101E1000BCDBBC01C701EDD3892B29F0F501808122
:101E20008E7F808314C0CC0FDD1FCC0FDD1FCC0F45
:101E3000DD1FC052D94D1E861F861A8A1B8A892D26
:101E400057DC7724739403C0712C01C0712C872D4B
:101E5000DF91CF911F910F91FF90EF90DF90CF9086
:101E6000BF90AF909F908F907F900895FF920F93B7
:101E70001F93CF93DF93182FF82EFF1CFF24FF1C16
:101E8000C82FCF70D0E0CC0FDD1FCF0DD11DA6DB4A
:101E9000DC01FE01EE0FFF1FEE0FFF1FEE0FFF1F15
:101EA000E451F94D02E005938C9180FF22C08E7FB2
:101EB0008C931796ED91FC9118973097D1F0FF20F5
:101EC00059F0CC0FDD1FCC0FDD1FCC0FDD1FC05232
:101ED000D94D6A897B890AC0CC0FDD1FCC0FDD1F6D
:101EE000CC0FDD1FC052D94D6E857F85412F81E01B
:101EF0001995DF91CF911F910F91FF900895CF9386
:101F0000C82FB4DFEC2FEF70F0E0EE0FFF1F8C2F27
:101F1000CC0F990B8827990F881F9927E80FF91F75
:101F2000EE0FFF1FEE0FFF1FEE0FFF1FE052F94DE8
:101F30001586CF910895E82FEF70F0E0EE0FFF1FA8
:101F4000282F082E000C330B2227330F221F332794
:101F5000E20FF31FEE0FFF1FEE0FFF1FEE0FFF1F2D
:101F6000E052F94D95859460958780DF81E0089572
:101F70001F920F920FB60F92112408B60F9218BE3F
:101F800009B60F9219BE0BB60F921BBE0F932F937B
:101F90003F934F935F936F937F938F939F93AF93F1
:101FA000BF93EF93FF938091CB0488233CF480E8A8
:101FB0008093CA040E94E206E6D184C08091CB04DB
:101FC00082FF20C084E08093CA048091F42686FFBB
:101FD00079C08091CC0481FD75C01BDB811172C07A
:101FE0008091DF26813011F44EDA6CC0843009F024
:101FF00069C0E5EFF6E204E00593EDEEF6E204E0F9
:10200000059360C08091CB0481FF57C082E080932C
:10201000CA048091EC2686FF55C08091CC0481FDD6
:1020200051C0F7DA81114EC08091DF26823041F431
:1020300084E08093DF26ECEEF6E202E0069342C0F5
:10204000833009F03FC0E5EFF6E204E00593EDEEE2
:10205000F6E204E0059336C080E18093CA0481E093
:1020600005DF81E803DF0E94BB061092C304E0EEA7
:10207000F6E2158696E0948783E48587158A948B2B
:10208000858B8BE996E2808B918BC8D91BC08091A0
:10209000CB0486FF07C080E48093CA0480E095D912
:1020A0006CD110C08091CB0485FF0CC080E280937E
:1020B000CA0481E08AD964D105C08091CB0484FF31
:1020C000E6CFCACFFF91EF91BF91AF919F918F91D2
:1020D0007F916F915F914F913F912F910F910F9051
:1020E0000BBE0F9009BE0F9008BE0F900FBE0F9051
:1020F0001F9018951F920F920FB60F92112408B6D9
:102100000F9218BE09B60F9219BE0AB60F921ABEE8
:102110000BB60F921BBE0F931F932F933F934F93BA
:102120005F936F937F938F939F93AF93BF93CF935F
:10213000DF93EF93FF938091CC0481FD03C069DAB4
:102140008111C1C082E08093CC048091C504819547
:10215000880FECEEF6E2E81BF109208131812C5E5C
:102160003642369527953695279536952795822FB1
:10217000869520FD02C090E001C090E8890FE82F0D
:10218000EF70F0E0EE0FFF1F282F082E000C330B2E
:102190002227330F221F3327E20FF31FDF01AA0F7D
:1021A000BB1FAA0FBB1FAA0FBB1FA052B94D1C9685
:1021B0009C9195FF88C0EE0FFF1FEE0FFF1FEE0FE3
:1021C000FF1FE451F94D00E20693811177C0809121
:1021D000DF26843019F465D921D975C00091EE2627
:1021E0001091EF268091322790913327C091DB2602
:1021F000D091DC269E01200F311F8217930718F41F
:102200008C010C1B1D0B8091302790913127A80168
:102210006BE976E28C0F9D1F2BD2C00FD11FC093AC
:10222000DB26D093DC260034110569F48091DD268D
:102230009091DE268C0F9D1F20912E2730912F2705
:102240008217930780F0E8E2F7E2C287D38706841B
:10225000F785E02D309729F01995811102C005D935
:1022600032C011D930C08091322790913327C817DE
:10227000D907F9F4E0913627F0913727309711F418
:10228000F4D821C01995811102C0EFD81CC020914B
:10229000DD263091DE268091DB269091DC26820FB0
:1022A000931F8093DD269093DE261092DB261092FA
:1022B000DC26ECEEF6E202E0069305C0803811F46D
:1022C000F8D801C015DAFF91EF91DF91CF91BF915E
:1022D000AF919F918F917F916F915F914F913F91BE
:1022E0002F911F910F910F900BBE0F900ABE0F9070
:1022F00009BE0F9008BE0F900FBE0F901F9018954B
:1023000087E08093A2007894E2E2F7E210821182E3
:1023100012821382148281E085830E9488010E94C8
:102320008C090E942C010E943D010E94B90622E204
:1023300037E243E257E2C8E4D0E0F894F901808143
:10234000811108C0DA01E0E0EF5F8D918823E1F3AD
:10235000E11102C07894F1CF8881F0E0E150F04EB5
:10236000817F9081892B888388818160888378949C
:10237000889588818E7F8883E0CF0C943D010895F5
:102380000C944E01089580912127882319F0CBDB0E
:102390000C947B01089591E09093212779D081E0FE
:1023A00008951092212785C00895662319F00C9492
:1023B000520108950C9456010895FF920F931F93B4
:1023C000CF93DF938B01FB018481823021F46894E9
:1023D000FF24F3F801C0F12CF8018581813031F040
:1023E000823039F4FF2DF062FF2E03C08F2D806301
:1023F000F82EF8018681863049F018F48530A9F06E
:102400000DC0873039F0893069F008C0FF2DF160C8
:10241000FF2E0BC08F2D8260F82E07C0EF2DE360DA
:10242000FE2E03C0FF2DF760FF2E60E183E00E94C7
:10243000FB01C0EAD8E0FD82F80180819181A28190
:10244000B381880F991FAA1FBB1F880F991FAA1F4E
:10245000BB1F9C01AD01220F331F441F551F60E0BD
:102460007CE68CED92E0D9D0DA01C9010196A11D7C
:10247000B11DB695A795979587959C012150310977
:102480002E833F83DF91CF911F910F91FF9008958D
:1024900060E183E00E94FB01E0E4F6E088E08183F4
:1024A00084E08283E0EAF8E08CE1848380E3838344
:1024B000089560E183E00E940702E0EAF8E01382F9
:1024C000148208958091A308882319F083E38093F0
:1024D000A30808951F920F920FB60F92112408B609
:1024E0000F9218BE09B60F9219BE0BB60F921BBE03
:1024F0002F933F934F935F936F937F938F939F930C
:10250000AF93BF93CF93EF93FF930E946B018091A2
:10251000A108887121F00E9434040E947301C091C7
:10252000A0080E948505811105C00E943A040E94FE
:10253000770104C08C2F90E00E94D0050E946F01AB
:10254000FF91EF91CF91BF91AF919F918F917F912B
:102550006F915F914F913F912F910F900BBE0F9014
:1025600009BE0F9008BE0F900FBE0F901F901895D8
:102570001F920F920FB60F92112408B60F9218BE39
:1025800009B60F9219BE0BB60F921BBE2F933F9345
:102590004F935F936F937F938F939F93AF93BF936B
:1025A000EF93FF930E940405882339F00E94630192
:1025B0000E9454058093A00805C080E38093A3087F
:1025C0000E946701FF91EF91BF91AF919F918F9111
:1025D0007F916F915F914F913F912F910F900BBE23
:1025E0000F9009BE0F9008BE0F900FBE0F901F9066
:1025F0001895AA1BBB1B51E107C0AA1FBB1FA6173A
:10260000B70710F0A61BB70B881F991F5A95A9F79B
:1026100080959095BC01CD010895A1E21A2EAA1BC8
:10262000BB1BFD010DC0AA1FBB1FEE1FFF1FA21782
:10263000B307E407F50720F0A21BB30BE40BF50B7F
:10264000661F771F881F991F1A9469F76095709508
:10265000809590959B01AC01BD01CF010895EE0FCF
:10266000FF1F881F8BBF0790F691E02D1BBE1994AA
:10267000FB01DC0102C001900D9241505040D8F79F
:062680000895F894FFCF5D
:10268600000E060C0400A504D70377027902760330
:1026960081027102E303790200006C202020000011
:1026A600282024201020062009024300020100C031
:1026B6003209040000010202010005240010010491
:1026C60024020205240600010524010301070582F0
:1026D6000340001009040100020A000000070581FA
:1026E600024000000705020240000000120100023D
:1026F60002000040EB030424000101020001000374
:1027060000000000000000000000000000000000C3
:10271600000000000000000000000000000043442C
:1027260043205669727475616C20436F6D00415485
:0C2736004D454C204153460004030904AB
:00000001FF
