:10000000ECC300000BC4000009C4000007C40000DA
:1000100005C4000003C4000001C40000FFC30000C9
:10002000FDC30000FBC30000F9C300000C940731BE
:10003000F5C30000F3C30000F1C30000EFC30000EC
:10004000EDC30000EBC30000E9C30000E7C30000FC
:10005000E5C30000E3C300000C940B2FDFC30000D6
:10006000DDC30000DBC30000D9C30000D7C300001C
:10007000D5C30000D3C30000D1C30000CFC300002C
:10008000CDC30000CBC30000C9C30000C7C300003C
:10009000C5C30000C3C30000C1C300000C94CC164C
:1000A0000C94FE160C9430170C946217B7C3000022
:1000B000B5C30000B3C30000B1C30000AFC300006C
:1000C000ADC30000ABC30000A9C30000A7C300007C
:1000D000A5C30000A3C30000A1C300009FC300008C
:1000E0009DC300009BC3000099C3000097C300009C
:1000F00095C3000093C3000091C300008FC30000AC
:100100008DC300008BC3000089C3000087C30000BB
:1001100085C3000083C3000081C300000C94041653
:100120000C9436160C9468160C949A1677C300003B
:1001300075C3000073C3000071C300006FC30000EB
:100140006DC300006BC3000069C3000067C30000FB
:1001500065C3000063C3000061C300005FC300000B
:100160005DC300005BC3000059C3000057C300001B
:1001700055C3000053C3000051C300004FC300002B
:100180004DC300004BC3000049C3000047C300003B
:1001900045C3000043C3000041C300003FC300004B
:1001A0003DC300003BC3000039C3000037C300005B
:1001B00035C3000033C3000031C300002FC300006B
:1001C0002DC300002BC3000029C3000027C300007B
:1001D00025C3000023C3000021C300001FC300008B
:1001E0001DC300001BC3000019C3000017C300009B
:1001F00015C300000C94C5100C94771154696D65FB
:100200007A6F6E6520686F75727320555443002DA8
:1002100031323A2042616B65722049736C616E64C1
:10022000002D31313A204B696E676D616E20526549
:100230006566002D31303A20486177616969002098
:100240002D393A20416C61736B6100202D383A20C2
:100250005061636966696300202D373A204D6F75E0
:100260006E7461696E00202D363A2043656E74729B
:10027000616C00202D353A204561737465726E0003
:10028000202D343A2045435400202D333A20477224
:1002900065656E6C616E6400202D323A20536F7577
:1002A00074682047656F7267696100202D313A20BC
:1002B0005072616961005554433A20554B202847DC
:1002C0004D542900202B313A204F736C6F2C204263
:1002D00065726C696E00202B323A20497374616E2E
:1002E00062756C00202B333A204E6169726F62692F
:1002F00000202B343A204D6F73636F7700202B352D
:100300003A2050616B697374616E00202B363A207D
:1003100042616E676C616465736800202B373A2018
:10032000546861696C616E6400202B383A20486F14
:100330006E67204B6F6E6700202B393A20546F6B2D
:10034000796F002B31303A2041455354002B313125
:100350003A20536F6C6F6D6F6E2049736C616E64E1
:10036000002B31323A2046696A690054696D657A1A
:100370006F6E65206D696E757465733A002030206C
:100380006D696E002B3135206D696E002B33302086
:100390006D696E002B3435206D696E0044617465A3
:1003A0002654696D650053686F7720446174652633
:1003B00054696D650053657420446174650053652C
:1003C000742054696D65005365742054696D657AB5
:1003D0006F6E650059656172004D6F6E7468004400
:1003E000617900486F7572004D696E7574650044DF
:1003F00061746520696E76616C6964004D61696E37
:10040000204D656E750054656D706572617475720E
:1004100065004C6967687473656E736F7200507223
:100420006F64756374696F6E204461746500446124
:10043000746520262054696D6500546F67676C658C
:10044000204261636B6C696768740054656D706508
:10045000726174757265000D0A57656C636F6D6526
:1004600020746F2074686520584D4547412D4133F5
:1004700042552058706C61696E65642044656D6FEB
:100480002043444320696E74657266616365210D83
:100490000A0D0A4B65792062696E64696E67732084
:1004A000666F72204C4344206D656E7520636F6EDD
:1004B00074726F6C3A0D0A2020456E7465722020AC
:1004C000202020203A20456E7465720D0A202042BB
:1004D00061636B737061636520203A204261636BD6
:1004E0000D0A20204172726F772055702020203A2B
:1004F0002055700D0A20204172726F7720446F776B
:100500006E203A20446F776E0D0A00000000000054
:10051000000020202020200020505050000000002B
:100520005050F850F850502078A07028F020C0C8E3
:1005300010204098186090A040A89068602040006B
:1005400000000010204040402010402010101020DB
:1005500040005020F8205000002020F8202000000B
:10056000000000602040000000F8000000000000D3
:100570000000606000081020408000708898A8C8C3
:10058000887020602020202070708808102040F89B
:10059000F810201008887010305090F81010F88073
:1005A000F008088870304080F0888870F8081020C3
:1005B00040404070888870888870708888780810FB
:1005C00060006060006060000060600060204008C3
:1005D0001020402010080000F800F80000804020A3
:1005E000102040807088081020002070880868A8BB
:1005F000A87070888888F88888F08888F08888F0E3
:1006000070888080808870E09088888890E0F8808A
:1006100080F08080F8F88080E08080807088808022
:10062000988870888888F888888870202020202002
:1006300070381010101090608890A0C0A090888032
:100640008080808080F888D8A8888888888888C832
:10065000A898888870888888888870F08888F08052
:10066000808070888888A89068F08888F0A090883A
:10067000788080700808F0F82020202020208888CA
:10068000888888887088888888885020888888A882
:10069000A8D88888885020508888888850202020B2
:1006A00020F80810204080F8382020202020380032
:1006B000804020100800E02020202020E0205088EA
:1006C00000000000000000000000F84020100000C2
:1006D0000000000070087888788080B0C88888F0B2
:1006E000000070808088700808689888887800000A
:1006F0007088F88070304840E040404000007888C2
:100700007808308080B0C888888820006020202049
:1007100070100030101090604040485060504860A9
:100720002020202020700000D0A8A888880000B0D9
:10073000C8888888000070888888700000F088F079
:100740008080000068987808080000B0C880808029
:10075000000070807008F04040E0404048300000E9
:1007600088888898680000888888502000008888D9
:10077000A8A8500000885020508800008888780879
:10078000700000F8102040F8102020402020102099
:100790002020202020204020201020204000201059
:1007A000F8102000002040F8402000183C7EFFFF99
:1007B0007E3C186050A09884828C844C30100A02D1
:1007C0001A021A020A103C7EFF8180088942183DF5
:1007D000BC18429110FF7E3C180011241FBECFEFC1
:1007E000DFE5DEBFCDBF00E00CBF12E2A0E0B0E26B
:1007F000E2E2FEE600E00BBF02C007900D92AE38C9
:10080000B107D9F71CE2A0E9B2E201C01D92AF3BEB
:10081000B107E1F70E94F61D0C940F37F1CB8093DE
:10082000A2066093A2068093A5066093A606609335
:10083000A10608953F936093A2068093A10680933A
:10084000A2066093A1063F918091A8068423089593
:100850008093A6068093A1060895A1E0B0E0E3E3AB
:10086000F4E00C940334E82F0FB7007819828091DC
:100870009022813019F081E080939022CE2EDD24E9
:10088000F601EE52FD4DB080F601EA52FD4DA0801A
:10089000F894BB2009F4AAC08B2DDADF8B2D6A2DCA
:1008A000BEDF1B2DEE24FF2460E0812C30E2932E6E
:1008B000F5FE07C09091D3228091D222982B19F592
:1008C00035C08FB7802B8FBF0000F8948B2D6A2D19
:1008D000412FB0DF682F0894E11CF11C8091E420C7
:1008E0008F5F8093E420823030F0823021F08330BB
:1008F00011F01092E4206623D9F22091D322809146
:10090000D222282B15C0412F80E040FF09C0E82FDC
:10091000F0E0EE0FFF1FE556FD4D8082918201C091
:1009200090FD8F5F96954695992379F710E020E02A
:100930008FB7802B8FBF10929122222309F43FC0E2
:10094000112309F43CC03091D7228091D622382B54
:10095000562F90E080E070E040E023C050FD17C0CB
:1009600019C030FF13C0981781F4E42FF0E0EE0FA8
:10097000FF1FE556FD4DE082F182852F8E7F19F431
:10098000892F71E008C0892F06C08F5F3695332309
:1009900041F701C020FD9F5F20FD4F5F56952695D2
:1009A00011F05523D9F640939122609516237130AA
:1009B00021F4112311F4EE24FF2460E013C0809190
:1009C000D3229091D222892B898390E006C089811D
:1009D00080FD9F5F89818695898389818823B9F706
:1009E00090939122F894112309F062CF82ED92E264
:1009F000C80ED91EF60180812BDF8FB7082B0FBFE1
:100A00002196ECE00C941C34FC0180E290E08083A1
:100A100091831282138280E394E084839583089506
:100A20009091CC22A92FB0E0FD01EE0FFF1FEA0F3D
:100A3000FB1FEE0FFF1FEC54FD4D43836770858352
:100A40002370660F660F660F262B24839F5F90939B
:100A5000CC2208951F93CF93DF93282FC82FD0E087
:100A6000FE01EE0FFF1FEC0FFD1FEE0FFF1FEC54FA
:100A7000FD4D3581838190E00090942202C09595D0
:100A800087950A94E2F7182F843008F414E08091D7
:100A9000CC22281718F020E030E02DC0832F1DD184
:100AA0009C01412F50E016951695812F90E0841BF4
:100AB000950B8217930764F4FE01EE0FFF1FEC0FF6
:100AC000FD1FEE0FFF1FEC54FD4D84818B7F84834F
:100AD00088279927841B950B8217930764F0FE01E2
:100AE000EE0FFF1FEC0FFD1FEE0FFF1FEC54FD4D2F
:100AF000848184608483C901DF91CF911F9108951F
:100B0000FF920F931F93CF93DF931092AC2210921A
:100B1000AD222091B0223091B1228093B0229093E7
:100B2000B1224091B2225091B322421B530B480F85
:100B3000591FFF2403C0F394485C5040483C5105C2
:100B4000D0F74093B2225093B3228091CD228823D4
:100B500041F08F1518F41092CD2203C08F198093A5
:100B6000CD22AAD3E091AE22F091AF22309709F0C6
:100B7000199510E000E005C0812F6F2DC3D0082B20
:100B80001F5F6091CC221617B8F3002349F08091C3
:100B9000AC229091AD2291608093AC229093AD22D3
:100BA0001092AB22A4EBB2E230E041E050E017C07B
:100BB0008C91887191F0E32FE695E695E695F0E04B
:100BC000E556FD4D832F8770EA0102C0CC0FDD1F73
:100BD0008A95E2F720892C2B208B3F5F16963617DB
:100BE00038F38091AC229091AD22CDB7DEB7E5E02D
:100BF0000C9423341092CC2284E08093952294E1CB
:100C00009093982285E08093992210929722909356
:100C1000962281E08093942283E080939A223BD3B2
:100C20001092AE221092AF2208951F9310E003C0DD
:100C3000812F27D01F5F8091CC221817C8F31F91F6
:100C40000895EF92FF921F93CF93DF93EC017B0106
:100C500010E003C0812F15D01F5F8091CC221817A0
:100C6000C8F31092B0221092B122C0939222D09376
:100C70009322C7010BD3DF91CF911F91FF90EF908B
:100C8000089590E0E4EBF2E29C01220F331F280F5D
:100C9000391FD901AA0FBB1FAE0FBF1F15964C916C
:100CA00015978091AC229091AD2282608093AC2206
:100CB0009093AD222F5F3F4F220F331FE20FF31FA0
:100CC0001082EEECF2E2E40FF11D80E8808381E017
:100CD0008C938FE011968C93089590E0FC013496EC
:100CE000ABE9B2E2EE0FFF1FEA0FFB1F880F991F5F
:100CF000A80FB91F208131818D919C91281B390B40
:100D0000C9010895A0E0B0E0E8E8F6E00C940134F1
:100D1000782EF62E9FDE5C01072D10E0F801EE0F15
:100D2000FF1FE00FF11FEE0FFF1FEC54FD4D54812C
:100D30004381242F30E0852F837090E0019602C01C
:100D4000359527958A95E2F7822F223008F482E0C4
:100D5000242F30E0B901681B7109F801EE0FFF1F65
:100D6000E00FF11FEF01CC0FDD1FCC54DD4D88816A
:100D7000843009F4F7C0853030F4813071F082306E
:100D800009F07DC26EC0803109F4A1C1803209F43E
:100D900042C2883009F073C2EEC14091AC2250913A
:100DA000AD22CA0192608093AC229093AD228D81D6
:100DB0006981A82FB0E06A3060F0AA0FBB1FFD0167
:100DC000E556FD4D80819181AD55BD4D8D939C9330
:100DD00018C0AA0FBB1FFD01ED55FD4D20813181CB
:100DE000A556BD4D8D919C918217930718F4215003
:100DF000304005C02817390750F42F5F3F4F20833C
:100E00003183486052604093AC225093AD22862FCC
:100E10008150F801EE0FFF1FE00FF11FEF01CC0F23
:100E2000DD1FCC54DD4D89838823B1F4AD8182E090
:100E300088838091AC229091AD2282608093AC2215
:100E40009093AD22EE0FFF1FEA54FD4D1082B0E0EB
:100E5000A253BD4D80E88C93809196228093CD2241
:100E60000CC252FF04C080E288831982F7C1C50119
:100E7000B7FE02C080E090E08217930780F0F8018F
:100E8000EE0FFF1FE00FF11FEE0FFF1FDF01AC544D
:100E9000BD4D84E08C93EA54FD4D1082E5C1FF20E6
:100EA00009F4EDC18091CD22882309F0E8C1F80151
:100EB000EE0FFF1FE00FF11FEE0FFF1FEC54FD4D73
:100EC000858190E0EC01CC0FDD1FCD55DD4D2881F3
:100ED0003981FC01EE0FFF1FE556FD4D0190F081B9
:100EE000E02D2E173F0788F4FC01E253FD4D908161
:100EF0009F0D9083809199228058981708F4BFC164
:100F000080E880832F5F3F4F14C0DC01A253BD4DAA
:100F1000E217F307D0F48C918F198C9340E89091ED
:100F20009822542F591B581708F4A9C14C932150EB
:100F30003040288339838091AC229091AD22886023
:100F40008093AC229093AD229AC12C91213810F05D
:100F500021502C93FC01E253FD4D808187FD8FC110
:100F60008F5F57C1C501B7FE02C080E090E0F80175
:100F7000EE0FFF1F8217930708F48FC0809196220F
:100F80008093CD229F01200F311F220F331FD901E3
:100F9000AA54BD4D8C918F5F8C93F901EC54FD4D9B
:100FA000848190E08873907023E0969587952A95C8
:100FB000E1F7682E882309F43EC0DD24CC247F01AC
:100FC00083E090E0E80EF91E4D012FC0D71461F1C7
:100FD0008D2D90E0EC01CC0FDD1FC80FD91FCC0F79
:100FE000DD1FCC54DD4D8C8190E08873907073E0F0
:100FF000969587957A95E1F76816B1F48D2D2ADDDF
:101000002B81821B9109F7012081A501421B510907
:10101000481759072CF08881803111F0883021F46D
:10102000F4011082CC24C394D3948091CC22D8169E
:1010300068F2CC2079F480919522882359F0809130
:10104000AC229091AD2298608093AC229093AD2217
:1010500041E001C040E09801220F331F200F311FF3
:10106000F901EE0FFF1FEA54FD4D9081809195220A
:10107000981708F405C18091AC229091AD2283604D
:101080008093AC229093AD22F901EE0FFF1FEC5438
:10109000FD4D80E180831182F3C0E00FF11FEE0F60
:1010A000FF1FDF01AC54BD4D15962C91159782E0C2
:1010B0008C938091AC229091AD2282608093AC227F
:1010C0009093AD22EA54FD4D1082E22F9EC0C501DF
:1010D000B7FE02C080E090E0F801EE0FFF1F4091E4
:1010E000AC225091AD228617970770F4E00FF11FE4
:1010F000EE0FFF1FEC54FD4D88E080835460409359
:10110000AC225093AD2231C041604093AC22509349
:10111000AD22E00FF11FEE0FFF1FEA54FD4D90814D
:1011200080919522981710F49F5F90839091972259
:10113000992371F0F801EE0FFF1FE00FF11FEE0F82
:10114000FF1FEC54FD4D8181891720F48F0D8183A1
:1011500040E00CC0872D95DD8091AC229091AD22AE
:1011600092608093AC229093AD2241E080919622D0
:101170008093CD2285C0809196228093CD22DF017D
:10118000AA0FBB1FAA54BD4D8C91882389F1C501BC
:10119000B7FE02C080E090E04091AC225091AD22B9
:1011A0006817790790F4F801EE0FFF1FE00FF11FA9
:1011B000EE0FFF1FEC54FD4D80E1808341604093B2
:1011C000AC225093AD2240E006C054604093AC2264
:1011D0005093AD2241E0F801EE0FFF1FE00FF11F29
:1011E000EE0FFF1FEA54FD4D80818150808348C07F
:1011F000ED8182E088838091AC229091AD22826063
:101200008093AC229093AD221C92F0E0E253FD4D0E
:1012100080E8808334C099819F5F99838C8182FDAF
:1012200017C0AD8182E088838091AC229091AD227D
:1012300082608093AC229093AD22EE0FFF1FEA54A0
:10124000FD4D1082B0E0A253BD4D80E88C9317C0D5
:1012500080919A22981740F0872D13DD8091AC225F
:101260009091AD22906105C08091AC229091AD2209
:1012700094608093AC229093AD2241E001C040E0A5
:10128000842FCDB7DEB7EEE00C941A34FC01009742
:1012900009F0199508951092D2221092D32210923B
:1012A000D6221092D7221092D4221092D5221092D8
:1012B000D8221092D92208958091D4229091D222DE
:1012C000892B41F0E0919222F0919322309711F016
:1012D00080E019958091D5229091D322892B41F0FD
:1012E000E0919222F0919322309711F081E01995CC
:1012F00008958091DA2208958091DB2208950F935A
:101300001F93DF93CF9300D00F92CDB7DEB787E165
:1013100091E20E94C32E8E010F5F1F4FC8010E94F1
:1013200076318A819B8182309105C1F787E191E214
:1013300069810E94DF2E682F8E5F823078F38E5095
:101340008093DA2284E090E06C830E943C206C81E0
:10135000681721F084E090E00E94662086E291E226
:101360000E94C32E8E010F5F1F4FC8010E9476316D
:101370008A819B8182309105C1F786E291E2698181
:101380000E94DF2E682F8E5F823078F3643030F455
:10139000E62FF0E0EC59FD4D808101C080E08093A4
:1013A000DB2285E090E06C830E943C206C81681712
:1013B00021F085E090E00E9466202496CDBFDEBF3C
:1013C000CF91DF911F910F9108951F9384E090E0DA
:1013D0000E943C20982F9C509093DA22893120F46F
:1013E00080931C2110E006C01092DA228CE08093DA
:1013F0001C2111E085E090E00E943C20843060F4E4
:10140000E82FF0E0EC59FD4D90819093DB22809322
:101410002B21113031F404C01092DB2210922B21C9
:101420006EDF1F910895DF92EF92FF920F931F934B
:1014300081E060E170E00E94F231182F81E061E10B
:1014400070E00E94F231E82E81E062E170E00E94DB
:10145000F231D82E81E063E170E00E94F231212F59
:1014600030E040E050E0522F442733272227FF246A
:1014700000E010E08701FF24EE242E293F29402BB5
:10148000512B90E0A0E0B0E0282B392B4A2B5B2BAE
:101490008D2D90E0A0E0B0E0BA2FA92F982F8827DB
:1014A000282B392B4A2B5B2BDA01C90180589E4629
:1014B000AE41BD448F3761E9960761EEA60762EB46
:1014C000B60720F020E83EE64EE15DE4B901CA012E
:1014D0001F910F91FF90EF90DF9008952F923F9210
:1014E0004F925F926F927F928F929F92AF92BF9234
:1014F000CF92DF92EF92FF920F931F93DF93CF93E0
:10150000CDB7DEB7E497CDBFDEBF80E060E040E856
:1015100020E200E010E00E940B2D80E090E260E00D
:1015200040E022E132E20E94B3247DDF8E010A5EB8
:101530001F4FA8010E94EA2044244A94542C3201EF
:10154000E02E1CAB8E01025E1F4F96E1892E912C7E
:1015500080E8282E312CCE0103960E9476318B81B3
:10156000883031F48C819D818230910509F4C4C0AA
:101570000E948E305B016C01641575058605970528
:1015800051F3C601AE014A5F5F4F0E94EA20CE01CF
:1015900006966E2D7CA9AE01425F5F4F0E94CC2261
:1015A0002DB73EB7285030402DBF3EBFEDB7FEB738
:1015B0003196ADB7BEB711960D931C9312978282E8
:1015C000938226E130E2248335834A892B893C8942
:1015D000C901880F991F820F931F880F991F880FC9
:1015E000991F840F911D868397830E943B348DB78A
:1015F0009EB708968DBF9EBFC80162E172E2AE0140
:101600004F5F5F4F9E012E5F3F4F0E9410258981E3
:10161000D101A81BB109CD0162E070E00E94C8337E
:10162000F62EC80148E022E132E20E94B3242DB731
:101630003EB7285030402DBF3EBFEDB7FEB73196C4
:10164000ADB7BEB711960D931C9312978282938209
:1016500021E230E2248335838989868317820E94C0
:101660003B348DB79EB708968DBF9EBFC8016F2DC6
:1016700040E122E132E20E94B324ADB7BEB71C972D
:10168000ADBFBEBFEDB7FEB7319611960D931C935B
:101690001297828293822AE230E2248335838889FA
:1016A000868317828F85808711868E858287138631
:1016B0000E943B348DB79EB70C968DBF9EBFC8016C
:1016C00062E172E2AE014F5F5F4F9E012E5F3F4FBE
:1016D0000E9410258981D101A81BB109CD0162E0CA
:1016E00070E00E94C833C80148E122E132E20E9462
:1016F000B324250136012FCFE496CDBFDEBFCF91B5
:10170000DF911F910F91FF90EF90DF90CF90BF90EE
:10171000AF909F908F907F906F905F904F903F9091
:101720002F900895CF93DF93EC0188E0C03AD8075B
:1017300031F483E090E060E10E941A1C14C088E05C
:10174000C03BD80731F483E090E060E20E941A1CAD
:1017500012C089E0C03AD80731F484E090E060E13B
:101760000E941A1C0FC089E0C03BD80721F484E016
:1017700090E060E20EC08AE0C03AD80719F485E034
:1017800090E006C08BE0C03AD80729F486E090E0EC
:1017900060E10E941A1CDF91CF910895CF92DF92F1
:1017A000EF92FF920F931F93CF93DF93EC016A01A7
:1017B0007B01C901B801660F771F881F991FCC0CE8
:1017C000DD1CEE1CFF1CA70196010E94DB332F5F7E
:1017D0003F4F4F4F5F4F569547953795279521506F
:1017E0003040832F8F708F832E83DF91CF911F9195
:1017F0000F91FF90EF90DF90CF9008950F931F937C
:10180000CF93DF93EC018B018DDF8D81806C8D8315
:10181000F8018481813011F0833019F48D81826068
:1018200002C08D818D7F8D83F8018481825082304A
:10183000F0F5F8E0C03ADF0741F480E496E062E0BA
:1018400040E453E00E941A2418C088E0C03BD80747
:1018500041F480E496E060E240E453E00E941A2400
:1018600014C0E9E0C03ADE0741F480E696E062E0A9
:1018700040E453E00E941A240FC0F9E0C03BDF07A8
:1018800021F480E696E060E20EC08AE0C03AD80714
:1018900019F480E896E006C0EBE0C03ADE0739F4C0
:1018A00080EA96E062E040E453E00E941A24F801E6
:1018B0004081518162817381CE0100E016E32EE602
:1018C00031E06CDF8C8188608C838C8180618C83BB
:1018D000DF91CF911F910F910895FC019FB7F8946C
:1018E000E655F34D80818F5F80839FBF0895FC0193
:1018F0009FB7F894E655F34D8081815080839FBF58
:1019000008951F93182F80915D25112331F48823AA
:1019100049F081E090E0EBDF05C0882319F481E015
:1019200090E0DBDF10935D251F910895282F30E0B4
:101930002F703070220F331F992787FD90958827CD
:10194000990F881F9927280F391F83E0220F331F13
:101950008A95E1F7245E3C4DC90108950F931F93CA
:10196000CF93DF9370E0637070706130710549F060
:10197000613071051CF400E410E005C000E810E0DF
:1019800002C000EC10E04038510511F1413851051A
:1019900050F440325105B1F040345105B1F04031BE
:1019A000510569F421C092E040305907B9F093E045
:1019B0004F3F5907B1F091E04030590761F0C0E066
:1019C000D0E014C0C2E0D0E011C0C3E0D0E00EC04F
:1019D000C4E0D0E00BC0C5E0D0E008C0C6E0D0E075
:1019E00005C0C7E0D0E002C0C1E0D0E09FDFFC014D
:1019F000118286E080830C2B0183DF91CF911F91B0
:101A00000F9108950F93E8ECF4E080818F7D80833F
:101A100080818F7D8083E4E2F3E202E005931092FF
:101A200026231092272300E2069300E406933897BA
:101A300000E2069300E406931092A62C1092A72CC5
:101A40001092A82C1092A92C1092A42C1092A52CC4
:101A500010922024109221240F9108950F9385E075
:101A600090E08093202490932124E5E2F3E204E0C7
:101A70000593389704E005930F9108950F9383E041
:101A800090E080932024909321241092262310929A
:101A90002723E4E2F3E202E006930F9108950F9307
:101AA00084E090E08093202490932124ECE1F3E201
:101AB00002E006930F910895E091A62CF091A72CD7
:101AC000309709F0199508950F93809120249091F3
:101AD00021248330910519F4EFDF94DF73C0209146
:101AE000A42C3091A52C8091652490916624A901A5
:101AF000481B590BCA01009709F043C0809162242A
:101B0000882311F4CCDF5EC080916324909164241B
:101B1000820F931F2091A02C3091A12C8217930744
:101B200048F0E091A82CF091A92C309719F0199564
:101B3000882339F4109262241092262310922723CE
:101B40003DC080916324909164242091652430915C
:101B50006624820F931F80936324909364241092D1
:101B60006524109266248091A42C9091A52C9C0150
:101B70002F73307041E02115310509F040E04093AA
:101B800062248134910510F080E490E08093262354
:101B90009093272340916524509166242091A22C94
:101BA0003091A32C240F351F209328233093292311
:101BB000840F951F8093652490936624E4E2F3E2FA
:101BC00002E006930F910895482F50E04F70507037
:101BD000440F551F992787FD90958827990F881FD7
:101BE0009927480F591F9A0163E0220F331F6A9506
:101BF000E1F7240F351F2B5E3A4DC9010895AF92CE
:101C0000BF92DF92EF92FF920F931F93CF93DF93D8
:101C1000D82EDADFEC018D2D89DE7C01FC0181817B
:101C200090E08770907001978730910540F4FC0137
:101C3000EE0FFF1FE859FD4D0081118102C008E041
:101C400010E0D7FE4EC0F701868197812D813E813D
:101C5000820F931F8D839E832B813C818217930774
:101C600099F1281B390BF4E020303F0740F02FEFAB
:101C700033E0C901B8010E94B433281B390B8881B5
:101C800081FF0AC0C901B8010E94B433AC0181E0F0
:101C900090E04115510511F080E090E08170880FCF
:101CA00098819D7F982B9883F70116821782228353
:101CB000338389819A812D813E81820F931F848392
:101CC000958302E0069389C0888181FF78C08D7F6B
:101CD0008883F701168217821282138202E006932C
:101CE0007CC0F701A280B380888182FF19C029815E
:101CF0003A818D819E81280F391F8B819C81B8018B
:101D00000E94B433AC01ED2DF0E0B6E0EE0FFF1F02
:101D1000BA95E1F7E95DFB4DC901BF010E9432347C
:101D20008D819E818A0D9B1D8D839E832B813C819D
:101D30002817390710F42D833E83F7018681978198
:101D4000A816B90609F03BC08D819E8182179307C2
:101D5000B1F1281B390BF4E020303F0710F02FEFD2
:101D600033E0C901B8010E94B433281B390BF701D5
:101D7000128213822017310798F488818460888347
:101D80008D2D90E08F709070A6E0880F991FAA9516
:101D9000E1F7895D9B4D84839583068317830BC090
:101DA00089819A814D815E81840F951FF70184831B
:101DB000958326833783F70102E006930EC088815E
:101DC00080FF0BC08E7F8883EF81F885309729F0E4
:101DD0006D817E8180E090E01995DF91CF911F9118
:101DE0000F91FF90EF90DF90BF90AF9008951F93F9
:101DF00080E30E942F1C1FB7F89480E090E0FC0164
:101E000023E0EE0FFF1F2A95E1F7E35EFC4D108201
:101E100001968032910599F7809127258E7F8093D6
:101E20002725809130258E7F80933025809139251C
:101E30008E7F80933925809142258E7F8093422525
:101E400080914B258E7F80934B25809154258E7FEA
:101E50008093542582E06AE170E00E94F2318F3F66
:101E600009F48FE18093FA0482E06BE170E00E9454
:101E7000F2318F3F09F48FE18093FB048091C0041D
:101E80008F608093C0048091C00480688093C004F8
:101E90008091C00480618093C004E0ECF4E08CE1A8
:101EA00093E2868397838091C00480628093C0040C
:101EB0008FEF8093C5048091C80481608093C8042B
:101EC0008091C00480648093C00410925D2585E0F9
:101ED00090E003DD1FBF1F9108951F931FB7F89473
:101EE00081E00FDDEAECF4E080E4808380E280832F
:101EF000E1ECF4E0808181608083A9ECB4E08C9116
:101F000082608C93E8ECF4E08081806480838C9123
:101F100081608C938081806880831FBF1F910895AA
:101F200080E008958093C30408958091C3040895C8
:101F300020911C2430911D24C901089580E090E077
:101F400008958093A22C9093A32C6093A42C70935B
:101F5000A52C0895CF92DF92FF920F931F93DF93EA
:101F6000CF930F92CDB7DEB7F82E8A016983DEDCFE
:101F70006C01FC018181807C6981882389F48F2D2B
:101F8000A801ECDCF6018181807C803C21F4818118
:101F90008770873039F0F60181818062818302C0C9
:101FA00080E001C081E00F90CF91DF911F910F91F0
:101FB000FF90DF90CF900895B9DCFC01918181E022
:101FC00092FF80E008951F93182FB0DCFC018181FF
:101FD0008B7F8183812FF8DDFC01808180FF06C02B
:101FE0008E7F80830780F085E02D199581E01F9119
:101FF00008958F929F92AF92BF92CF92DF92FF92FD
:102000000F931F93DF93CF930F92CDB7DEB7F82EC8
:102010005A0169016983D8DD4C018F2D87DCFC01F1
:102020008181807C6981882309F461C08181807C01
:10203000803C19F0818182FD5AC08FB7F894D40199
:102040009C9190FF02C08FBF52C09160D4019C93BD
:102050008FBF1196AD92BC9212971396CD92DC92DF
:10206000149715961D921C92169717960D931C9314
:102070001897662341F481E090E0C114D10429F05F
:1020800080E090E002C081E090E08170880FD40190
:102090009C91997F982B9C93F7FC23C08181807C35
:1020A000803CE9F4818190E08770907001978730DF
:1020B000910548F4DC01AA0FBB1FA859BD4D6D91D5
:1020C0007C91119702C068E070E0C6010E94B433B1
:1020D000009729F0F40180818E7F808308C01282EE
:1020E0001382168217828F2D8ADD81E001C080E085
:1020F0000F90CF91DF911F910F91FF90DF90CF90C4
:10210000BF90AF909F908F9008950F931F93CF93A0
:10211000DF93182F0BDCEC01812F56DDDC01FE0173
:1021200002E005938C9180FF12C08E7F8C931796EE
:10213000ED91FC911897309751F017FF03C06E8115
:102140007F8102C06A817B8181E090E01995DF91F7
:10215000CF911F910F9108950F931F93182FE6DBD6
:10216000FC0181818460818301E00693812FCDDFB2
:1021700081E01F910F9108951F93182FC6DF812FC3
:10218000D5DBFC0111821F9108951F920F920FB6AB
:102190000F920BB60F9211240F932F933F934F93EF
:1021A0005F936F937F938F939F93AF93BF93EF93BF
:1021B000FF938091CB0487FF06C080E88093CA0418
:1021C0000E94491980C08091CB0482FF20C084E026
:1021D0008093CA048091242386FF75C080911C23BC
:1021E00085FD71C08091202490912124813091053A
:1021F00011F444DC68C08430910509F064C0E5E264
:10220000F3E204E00593389704E005935CC0809105
:10221000CB0481FF53C082E08093CA0480911C23C9
:1022200086FF51C08091242385FD4DC080912024DC
:10223000909121248230910511F431DC44C0833027
:10224000910509F040C0E5E2F3E204E00593389718
:1022500004E0059338C080E18093CA0481E055DF33
:1022600081E853DF82E051DF82E84FDFF4D710923C
:10227000C30480E060E040E450E070DB80E860E0B0
:1022800040E450E06BDB82E294E280932023909361
:102290002123B8DB18C08091CB0486FF05C080E401
:1022A0008093CA0480E008C08091CB0485FF0BC0F6
:1022B00080E28093CA0481E024DB05C08091CB04D6
:1022C00084FDC9CFE8CFFF91EF91BF91AF919F916E
:1022D0008F917F916F915F914F913F912F910F91CE
:1022E0000F900BBE0F900FBE0F901F9018951F926E
:1022F0000F920FB60F920BB60F921124EF92FF922E
:102300000F931F932F933F934F935F936F937F93FD
:102310008F939F93AF93BF93CF93DF93EF93FF93ED
:102320002091CC048CE193E220FF7AC021E020933D
:10233000CC04FC0100E80693389600E8069320934D
:10234000CA04FC0100E1069380912024909121248D
:10235000009731F003978230910508F4ADDB52DB32
:1023600080911E2390911F238830910509F0FEC0B3
:10237000AAE9BCE2E2E2F4E288E001900D92815029
:10238000E1F7E4E2F3E201E00593EF012897FE01B3
:1023900001E005938091C80480628093C804809115
:1023A000C80480628093C8049BD7882309F4BFC007
:1023B00080919A2C87FF1BC08091A42C9091A52C12
:1023C0008F73907021E0009709F020E02093622441
:1023D0001092632410926424109265241092662453
:1023E00082E090E08093202490932124BBC08091D0
:1023F000A02C9091A12C009709F487C0109263241F
:1024000010926424109265241092662481E090E07A
:102410008093202490932124FE0102E00693A6C01D
:1024200022E02093CC042091C5042195220F821B29
:102430009109FC01808191818C51934243E09695F2
:1024400087954A95E1F7182F169580FF02C080E81E
:1024500001C080E0180F812F69DAFC01808185FFBF
:1024600085C000E20693112309F07AC080912024F0
:10247000909121248430910519F41EDBC3DA76C0D3
:10248000C0911E23D0911F238091A42C9091A52C44
:10249000009165241091662498012C0F3D1F82172E
:1024A000930718F4EC01C01BD10B4091A22C509162
:1024B000A32C400F511F22E234E2CA01B901AE0140
:1024C0000E9432340C0F1D1F009365241093662464
:1024D000C034D10569F48091632490916424800F05
:1024E000911F2091A02C3091A12C8217930778F096
:1024F0000093A42C1093A52CE091A82CF091A92C6A
:10250000309719F01995882391F0B8DA2FC080918F
:10251000A42C9091A52C80179107E9F4E091A82CA8
:10252000F091A92C309719F01995882311F496DAB7
:102530001DC0809163249091642420916524309182
:102540006624820F931F80936324909364241092D7
:10255000652410926624ECE1F3E202E0069306C0E3
:10256000103811F4B1DA02C0812F49DBFF91EF91ED
:10257000DF91CF91BF91AF919F918F917F916F919B
:102580005F914F913F912F911F910F91FF90EF908D
:102590000F900BBE0F900FBE0F901F9018952F92AB
:1025A0003F924F925F926F927F928F929F92AF92E3
:1025B000BF92CF92DF92EF92FF920F931F93DF9320
:1025C000CF93CDB7DEB7CA59D040CDBFDEBF4FE104
:1025D000842E912C8C0E9D1E3FE0632E712C6C0E70
:1025E0007D1E25E7A22EB12CAC0EBD1E9501245FE9
:1025F0003F4FC756DF4F28833983C959D04085E301
:1026000091E20E94C32ECE0103960E9476318C8106
:102610009D8182309105B9F785E391E26B810E943B
:10262000DF2E8F3F81F3813009F434C1813038F0DF
:10263000823009F4EBC1833009F05AC256C2D50189
:10264000E8E5F0E28CE001900D928150E1F784E141
:10265000C756DF4FA881B981C959D0401D928A95CC
:10266000E9F780E060E040E820E200E010E00E944E
:102670000B2D0E948E307B018C010E947909382E2F
:102680000E947C09282E92E0C92ED12CCC0EDD1E92
:10269000C50162E172E22E010894411C511CA201A5
:1026A00096010E941025298180E890E0821B910903
:1026B00062E070E00E94C833C50140E022E132E2EE
:1026C0000E94B324C801B701432D222D83010E942B
:1026D0007521EE24EA94FE2C8701CB56DF4FC88289
:1026E000C559D040CA56DF4FD882C659D040C956C6
:1026F000DF4F4882C759D040C856DF4F5882C8596B
:10270000D04080E8C82ED12CCE0106960E947631AA
:102710008E81883031F48F8198858230910509F45B
:102720006ECF0E948E301B012C016E157F05800735
:10273000910751F3C3010E948323EDB7FEB73E9783
:10274000EDBFFEBF3196ADB7BEB71196AD92BC924C
:10275000129720E230E02283338389E390E284837E
:102760009583AE89B0E0AA0FBB1FA45CBE4D8D91CE
:102770009C91868397838A8990E0019680879187D0
:102780008B8990E00196828793878C899D898487C5
:1027900095870E943B34ADB7BEB71E96ADBFBEBF96
:1027A000C50162E172E2C956DF4F4881C759D04086
:1027B000C856DF4F5881C859D040CB56DF4F2881CB
:1027C000C559D040CA56DF4F3881C659D0400E9403
:1027D00010258981F601E81BF109CF0162E070E064
:1027E0000E94C833C5014CE022E132E20E94B324CA
:1027F0002DB73EB72C5030402DBF3EBFEDB7FEB7D2
:102800003196ADB7BEB71196AD92BC92129720E249
:1028100030E02283338389E490E28483958389893D
:10282000868317828889808711868F8582871386A1
:102830000E943B34ADB7BEB71C96ADBFBEBFC5014D
:1028400062E172E2C956DF4F4881C759D040C8568D
:10285000DF4F5881C859D040CB56DF4F2881C5592A
:10286000D040CA56DF4F3881C659D0400E9410254B
:102870008981F601E81BF109CF0162E070E00E9456
:10288000C833C50144E122E132E20E94B32482014F
:1028900071013ACFCE01899661E070E044ED53E0DA
:1028A00020E030E00BED17E0E9E3EE2EE8E0FE2E4D
:1028B000CC240E945626CE01CC9661E070E049ED12
:1028C00053E020E030E001E010E0BCE0EB2EF12C22
:1028D0000E945626CE01815B9F4F61E070E04FED74
:1028E00053E020E030E0AFE1EA2EF12C0E945626C2
:1028F000C4010E947726CE018996B4010E947E26EB
:10290000CE01CC96B4010E947E26CE01815B9F4F02
:10291000B4010E947E260E947909F82E0E947C094B
:10292000E82E0E948E304F2D2E2D83010E9475219E
:102930008A8990E0019665968EAF9FAF65978B89E7
:1029400090E0019622968EAF9FAF22978C899D8949
:102950008DA79EA7C4010E94B126CE0106960E94B3
:1029600076318F81988582309105B9F7C4016E81E7
:10297000AE01475F5F4F0E9475278D3F71F78985D4
:102980009A858C8F9D8F8B8581508B8F8D85815003
:102990008A8F198E188E1F8ACE0147966F2D4E2D65
:1029A0000E9458226115710581059105D1F480E0DE
:1029B00060E040E820E200E010E00E940B2D8FEE86
:1029C00093E06AE04CE022E132E20E94E224CE0190
:1029D00006960E9476318F81988582309105B9F7ED
:1029E0000ECE0E948E304F2D2E2D83010E94752118
:1029F0008C8D9D8D8C8B9D8B8B8D8B8B8A8D8A8BFB
:102A0000C3016F2D4E2D0E9458226CC0CE018E59ED
:102A10009F4F61E070E043EE53E020E030E000E0E3
:102A200010E0F7E1EF2EF12CCC240E945626C501D0
:102A300061E070E048EE53E020E030E0EBE3EE2EA2
:102A4000F12C0E945626C4010E947726CE018E5991
:102A50009F4FB4010E947E26C501B4010E947E26CC
:102A60000E947909F82E0E947C09E82E0E948E307F
:102A70004F2D2E2D8E01095E1F4F0E947521898DCD
:102A8000A7968FAFA797A8961FAEA897888DD50158
:102A900014968C93149715961C92C4010E94B1262B
:102AA000CE0106960E9476318F81988582309105FD
:102AB000B9F7C4016E81AE01475F5F4F0E94752771
:102AC0008D3F71F78985898F8B85888FCE014796D9
:102AD0006F2D4E2D0E9458226115710581059105BB
:102AE00009F48DCD0E9475308ACD0E947F0987CD73
:102AF000C656DF4FCDBFDEBFCF91DF911F910F9143
:102B0000FF90EF90DF90CF90BF90AF909F908F900D
:102B10007F906F905F904F903F902F90089522E0AC
:102B20008030920761F480916225982F9F5F909387
:102B300062258823A1F481E090E062E07BC622E078
:102B40008034920761F480916325982F9F5F909362
:102B50006325882321F482E090E062E06BC608954B
:102B600022E08030920759F4809162258150809351
:102B70006225882399F481E090E062E066C622E055
:102B80008034920759F480916325815080936325A6
:102B9000882321F482E090E062E057C60895682F10
:102BA00082E070E00C94F231EF92FF92CF93DF93CA
:102BB0008130910571F08130910520F082309105CE
:102BC000D9F40EC081E2EBDF982F80E0EC0180E2C7
:102BD0000DC085E2E4DF982F80E0EC0184E206C0BE
:102BE0008FE2DDDF982F80E0EC018EE2D8DF282F26
:102BF00030E02C2B3D2B02C020E030E0C901DF91FA
:102C0000CF91FF90EF9008951F920F920FB60F9201
:102C10000BB60F9211242F933F934F935F936F93B3
:102C20007F938F939F93AF93BF93EF93FF93E0E2D4
:102C3000F2E044815581E0915E25F0915F2580E0CE
:102C400092E060E01995FF91EF91BF91AF919F9154
:102C50008F917F916F915F914F913F912F910F9045
:102C60000BBE0F900FBE0F901F9018951F920F92E2
:102C70000FB60F920BB60F9211242F933F934F93E1
:102C80005F936F937F938F939F93AF93BF93EF93D4
:102C9000FF93E8E2F2E044815581E0915E25F091F6
:102CA0005F2580E092E061E01995FF91EF91BF917F
:102CB000AF919F918F917F916F915F914F913F91D4
:102CC0002F910F900BBE0F900FBE0F901F90189575
:102CD0001F920F920FB60F920BB60F9211242F93E3
:102CE0003F934F935F936F937F938F939F93AF9394
:102CF000BF93EF93FF93E0E3F2E044815581E091CD
:102D00005E25F0915F2580E092E062E01995FF91E9
:102D1000EF91BF91AF919F918F917F916F915F9153
:102D20004F913F912F910F900BBE0F900FBE0F90C0
:102D30001F9018951F920F920FB60F920BB60F921D
:102D400011242F933F934F935F936F937F938F93B0
:102D50009F93AF93BF93EF93FF93E8E3F2E0448137
:102D60005581E0915E25F0915F2580E092E063E07F
:102D70001995FF91EF91BF91AF919F918F917F91A5
:102D80006F915F914F913F912F910F900BBE0F90DC
:102D90000FBE0F901F9018951F920F920FB60F92B3
:102DA0000BB60F9211242F933F934F935F936F9322
:102DB0007F938F939F93AF93BF93EF93FF93E0E63F
:102DC000F2E044815581E0916025F091612580E435
:102DD00092E060E01995FF91EF91BF91AF919F91C3
:102DE0008F917F916F915F914F913F912F910F90B4
:102DF0000BBE0F900FBE0F901F9018951F920F9251
:102E00000FB60F920BB60F9211242F933F934F934F
:102E10005F936F937F938F939F93AF93BF93EF9342
:102E2000FF93E8E6F2E044815581E0916025F0915E
:102E3000612580E492E061E01995FF91EF91BF91E7
:102E4000AF919F918F917F916F915F914F913F9142
:102E50002F910F900BBE0F900FBE0F901F901895E3
:102E60001F920F920FB60F920BB60F9211242F9351
:102E70003F934F935F936F937F938F939F93AF9302
:102E8000BF93EF93FF93E0E7F2E044815581E09137
:102E90006025F091612580E492E062E01995FF9150
:102EA000EF91BF91AF919F918F917F916F915F91C2
:102EB0004F913F912F910F900BBE0F900FBE0F902F
:102EC0001F9018951F920F920FB60F920BB60F928C
:102ED00011242F933F934F935F936F937F938F931F
:102EE0009F93AF93BF93EF93FF93E8E7F2E04481A2
:102EF0005581E0916025F091612580E492E063E0E6
:102F00001995FF91EF91BF91AF919F918F917F9113
:102F10006F915F914F913F912F910F900BBE0F904A
:102F20000FBE0F901F9018951F93CF93DF93EC0166
:102F30001FB7F894F4DD8881816088831FBF9FB735
:102F4000F8948091AB2C8F5F8093AB2C9FBFDF9167
:102F5000CF911F910895DF92EF92FF920F931F93ED
:102F6000CF93DF93EC018B0182E0C030D80719F4D6
:102F700080E090E006C0E2E0C034DE0709F581E0C1
:102F800090E012DE7C01DFB6F894CE01C8DD288126
:102F900082E08883EC86FD86F80185819681888FA2
:102FA000998F82818A8384818C8383818B838181C1
:102FB000898321708081282B2883CE01D1DDDFBE5B
:102FC000DF91CF911F910F91FF90EF90DF900895C7
:102FD000DF92EF92FF920F931F93CF93DF93EC0159
:102FE0007A018C01005E1F4F70E083E0660F771F4F
:102FF0008A95E1F7060F171FDFB6F894CE018FDD33
:10300000F7018081F8018083F7018281F8018283D2
:10301000F7018181F8018183CE01A2DDDFBEDF915E
:10302000CF911F910F91FF90EF90DF9008952FB7F0
:10303000F89432E08030930729F460935E25709312
:103040005F2508C032E08034930721F46093602547
:10305000709361252FBF0895809364259093652513
:10306000089570E07695762F662777956795640FBB
:10307000711DE0916425F0916525E60FF71F482F3B
:10308000592FDA018D9181932150E1F7089590E055
:103090009695982F882797958795860F911DE09193
:1030A0006425F0916525E80FF91F4083089590E0AD
:1030B0009695982F882797958795860F911DE09173
:1030C0006425F0916525E80FF91F8081089590919E
:1030D0006825992361F1E0916925F0916A250190B5
:1030E000F081E02D9481891720F5E0936C25F09311
:1030F0006D25228133812E0F3F1F12C091819430A4
:1031000061F49281891749F49381691731F4E0934E
:103110006C25F0936D2581E008959081E90FF11DF4
:10312000E217F30758F3E0936C25F0936D2580E0E8
:10313000089580E0089580919C2C8F770C94920FD5
:10314000FC01A0916925B0916A250D90BC91A02D3C
:1031500012962D913C9113972A0F3B1F05C0818138
:10316000843041F0853041F08081E80FF11DE21795
:10317000F307A8F3E0E0F0E0CF0108950F931F9369
:10318000CF93DF93082F60E0A2DF882351F1E09115
:103190006925F0916A25202F30E0220F331F02802D
:1031A000F381E02DE20FF31FC081D181EE81FF8119
:1031B0001995682F802F8BDF882399F000916C255B
:1031C00010916D25C801BCDFFC018C01009721F036
:1031D00082810E94BC10F6CFEA81FB81199581E0C3
:1031E00001C080E0DF91CF911F910F9108951F934F
:1031F000CF93DF93182F6BDF882341F1C0916C25AB
:10320000D0916D25CE019CDFFC01EC01009749F0C7
:1032100044815581828163810E94AA0F882391F79E
:1032200015C0E0916925F0916A25812F90E0880F03
:10323000991F0280F381E02DE80FF91F0190F081C2
:10324000E02D0190F081E02D199501C080E0DF9123
:10325000CF911F9108951F9380916825882379F05D
:1032600010E003C0812F8ADF1F5FE0916925F09194
:103270006A250190F081E02D8481181798F310924F
:10328000682581E090E080936625909367251F91E3
:1032900008951F9380916825882301F110E013C0E1
:1032A000812F90E0880F991F0280F381E02DE80FB5
:1032B000F91F0190F081E02D0084F185E02D309719
:1032C00009F019951F5FE0916925F0916A25A081A9
:1032D000B18114968C911497181710F31F910895CB
:1032E000EF92FF920F931F93DF93CF930F92CDB77F
:1032F000DEB71092A42C1092A52C1092A62C10923E
:10330000A72C1092A82C1092A92C40919A2C47FF20
:1033100007C08091A02C9091A12C009709F409C2BC
:10332000242F30E0C90180769070009709F0C5C164
:1033300047FFF8C08091A02C9091A12C009709F430
:10334000BCC12F7130702115310509F091C0209159
:103350009B2C263069F0283009F483C0222309F021
:10336000ACC18230910509F0A8C186E695E2D5C0CE
:1033700000919C2C10919D2C123061F0133059F16A
:10338000113009F09AC18091E5219091E621DC018C
:103390006C9153C0802FE091E521F091E621918955
:1033A000091708F08AC190E0880F991F880F991FAC
:1033B000E091E721F091E821E80FF91F80819181E8
:1033C000FC01628173810E94A10FE091A22CF09117
:1033D000A32C118335C010700130110559F0013054
:1033E000110560F00230110591F00330110509F06C
:1033F00064C109C069E08EE491E20CC08AE491E204
:1034000064E070E01BC06CE080EB9CE203C06FE006
:1034100088E591E2482FEAE6F1E2A82FB92F8D91D5
:103420008083118232968A2F841B8617C0F3660F21
:103430006E5F6093682188E691E270E00E94A10FC0
:103440008091A02C9091A12C2091A42C3091A52C9E
:103450008217930708F06BC18093A42C9093A52C3E
:1034600066C18130910509F028C188E695E23BC02C
:1034700021303105D9F520919B2C2A3009F01DC14E
:103480008130910509F019C180916825882309F4DC
:1034900014C110919E2CE0906925F0906A25D70107
:1034A000ED91FC9111978481181708F006C1812FC6
:1034B00060E00DDE882309F400C1812F90E0880FC1
:1034C000991FD7011296ED91FC911397E80FF91F00
:1034D0000190F081E02D0680F781E02D1995809311
:1034E0006B258BE695E261E070E019C02230310572
:1034F00009F0E3C020919B2C222309F0DEC082302A
:10350000910509F0DAC080919E2C0E94DC0F809317
:103510006E2510926F258EE695E262E070E00E94C3
:10352000A10F05C1C9018F719070009709F078C093
:1035300080919B2C853031F0893059F1813009F030
:10354000BCC00EC08091A02C9091A12C009709F0D6
:10355000B4C08BE998E18093A62C9093A72CE7C088
:103560008091A02C9091A12C009709F0A6C0809189
:103570009C2C90919D2C8130910509F09EC08091EA
:103580006625909167258D7F8093662590936725AA
:10359000CEC08091A02C9091A12C009709F08DC0F5
:1035A0000E94950F882309F488C080919C2C9091EB
:1035B0009D2C9070E091E521F091E621218930E089
:1035C0002817390708F479C046DE80919C2C809337
:1035D0006825882309F4ABC090E00197880F991FF4
:1035E000880F991F2091E7213091E821280F391F7A
:1035F0002093692530936A2510E007C0812F60E091
:10360000F6DD882309F459C01F5FE0916925F09128
:103610006A250190F081E02D8481181778F387C026
:1036200081309105E9F480919B2C8B3009F045C0E5
:103630008091A02C9091A12C009709F03EC0809120
:1036400068258823D1F110919E2C60919C2C812FAC
:10365000698394DD6981882381F1812FC8DD2BC0C6
:103660008230910551F580919B2C813019F0833087
:1036700021F511C08091A02C9091A12C0097E9F424
:1036800080919C2C90919D2C0097B9F480919E2C58
:103690000E94E30F10C08091A02C9091A12C009764
:1036A00061F480919C2C90919D2C009731F4809135
:1036B0009E2C0E94AC108823D1F580919A2C8F719A
:1036C0008130B9F580916825882399F110919E2C5D
:1036D000E0906925F0906A25D701ED91FC91119752
:1036E0008481181730F5812F60E0F1DC882309F11F
:1036F000212F30E0220F331FD7011296ED91FC915C
:103700001397E20FF31FE080F180D7011696ED9139
:10371000FC9117971995682F812FD9DC882349F0E0
:10372000D7011496ED91FC911597199503C081E08E
:1037300001C080E00F90CF91DF911F910F91FF901A
:10374000EF9008950F931F93DF93CF9300D00F92C4
:10375000CDB7DEB78FEF80937000809371008093B8
:10376000720080937300809374008093750080933F
:10377000760081E490E064E00E94FC3182E06CE13C
:1037800070E00E94F231FE013196818382E06DE1AA
:1037900070E00E94F231898389819A812FEF8F3FF7
:1037A000920721F480E493E289839A8389819A8144
:1037B0008B839C83E0E6F0E082838C8183839FB7D8
:1037C000F894809150008260809350009FBF00E584
:1037D00010E08091510081FFFACF80E490E061E039
:1037E0000E94FC319FB7F89480915600897FF801C0
:1037F0008683E0E6F0E080E885838BEB868380912A
:1038000056008460F8018683809160008160809317
:1038100060009FBF9FB7F894809150008E7F809387
:1038200050009FBF2496CDBFDEBFCF91DF911F9187
:103830000F910895FC019FB7F894E059FF4F6095F0
:103840008081862380839FBF0895FC019FB7F894F1
:10385000E059FF4F8081862B80839FBF089586307B
:1038600011F468E101C060E0636084E490E00E94CC
:10387000FC3180E090E060E4DDCFE82FE695E6954E
:10388000E695F0E0F09695E0EE0FFF1F9A95E1F7D0
:1038900090E0662359F08770907021E030E002C01C
:1038A000220F331F8A95E2F7258308958770907061
:1038B00021E030E002C0220F331F8A95E2F7268311
:1038C00008951F93182F8BE260E0D7DF88E160E056
:1038D000D4DF8091A10985FFFCCF1093A0098091CE
:1038E000A10986FFFCCF80E4E0EAF9E081838091C2
:1038F000A0098BE261E0C1DF1F9108951F93182F8B
:103900008BE260E0BADF88E161E0B7DF8091A10976
:1039100085FFFCCF1093A0098091A10986FFFCCF01
:1039200080E4E0EAF9E081838091A00988E160E029
:10393000A4DF8BE261E0A1DF1F9108958F70806B9F
:10394000C0CF1F93182F8F7782958F708061B9DF5A
:10395000812F8F70B6DF1F910895FF920F931F93F1
:10396000CF93DF93EC01F62E042F122F7ADB8F2DED
:10397000E5DF802FE6DF8991C1DF1150E1F7DF91AC
:10398000CF911F910F91FF900895FF920F931F9376
:10399000F82E062F142F7BDB8F2DD0DF802FD1DF69
:1039A000812FACDF1F910F91FF9008950F931F930C
:1039B00080E795E251DB0E94792880E482DF10E005
:1039C0000AC0812F602F40E0E0DF0F5F0038C9F7A9
:1039D0001F5F143011F000E0F4CF1F910F91089594
:1039E000FF920F931F93DF93CF930F92CDB7DEB764
:1039F000182F87FD30C0603270F5062F06950695AA
:103A00000695202F30E0309521953F4F53E0220F4F
:103A1000331F5A95E1F7260F311DE1E0F0E002C0B7
:103A2000EE0FFF1F2A95E2F7FE2E802F612F4983AC
:103A30003EDB482F9981913029F0913028F0923067
:103A400039F405C04F2904C0F0944F2101C04F251F
:103A5000802F612F9ADF0F90CF91DF911F910F91EF
:103A6000FF90089524CB0895FF920F931F93DF9347
:103A7000CF930F92CDB7DEB7082F162FF42E2983E0
:103A800016DB482F2981213029F0213028F02230FF
:103A900039F405C04F2904C0F0944F2101C04F25CF
:103AA000802F612F72DF0F90CF91DF911F910F91C7
:103AB000FF900895E82FE695E695E695F0E0F096FC
:103AC00095E0EE0FFF1F9A95E1F790E0662359F01D
:103AD0008770907021E030E002C0220F331F8A957A
:103AE000E2F7258308958770907021E030E002C0EE
:103AF000220F331F8A95E2F7268308951F93182F0C
:103B00008BE260E0D7DF88E160E0D4DF8091A1093B
:103B100085FFFCCF1093A0098091A10986FFFCCFFF
:103B200080E4E0EAF9E081838091A0098BE261E022
:103B3000C1DF1F9108950F931F93DF93CF9300D0A0
:103B4000CDB7DEB780E060E040E820E200E010E0C2
:103B50000E940B2D8AE06AE044E021E030E00FEFA4
:103B60000E94262D8AE066E144E021E030E00E94D8
:103B7000262D85E76AE044E021E030E00E94262D12
:103B800085E766E144E021E030E00E94262D84E9EB
:103B900090E26AE548E022E132E2E5D687E990E288
:103BA00060E544E122E132E2DED68CE990E264E1B4
:103BB00048E022E132E2D7D682EA90E264E144E1D1
:103BC00022E132E2D0D68E010F5F1F4FC8010E9462
:103BD00076318A819B8182309105C1F72396CDBFD2
:103BE000DEBFCF91DF911F910F910895DF92EF9289
:103BF000FF920F931F93DF93CF9300D0CDB7DEB723
:103C0000A1DD8DD087E0E0EAF0E08283CFDE0E9484
:103C10002E2F0E94AF2B84E261E04CDF80E090E029
:103C200064E008DE8091210480FDFCCF80E00E94EA
:103C3000A130009751F00E94C3300E94130A6F5FB9
:103C40007F4F8F4F9F4F0E9475300E948E3060389B
:103C50002EE672072EE182072DE4920730F460E829
:103C60007EE68EE19DE40E94753081E847DF81E2C7
:103C700045DF8DD178945FDF0E94E5098E010F5FEB
:103C80001F4F30E8E32E36E0F32E20E1D22E83EFF3
:103C900091E20E94C32EC8010E9476318A819B81E5
:103CA00082309105C1F783EF91E269810E94DF2E96
:103CB0008F3F89F3823089F0833028F4882341F0E4
:103CC0008130A1F407C0833059F0843079F40BC0FF
:103CD00067D0DDCF0E94972FDACF0E946E0AD7CF30
:103CE0000E94CF12D4CFF701D782D1CF24DFCFCF1C
:103CF000AB01282F26952695269530E0205D3F4F75
:103D0000877061E070E002C0660F771F8A95E2F766
:103D1000C90125E0880F991F2A95E1F78BC588E72F
:103D200060E073E0E5DF89E760E073E0E1DF8CE10C
:103D300060E073E0DDDF8DE160E473E0D9DF85E210
:103D40006BE170E0D5DF89E160E073E0D1DF8BE10A
:103D500060E073E0CDDF8BE260E073E0C9DF88E113
:103D600060E073E0C5DF83E060E073E0C1DF84E220
:103D700060E071E0BDDF89E160E073E0B9DF8BE115
:103D800060E073E0B5DF8CE260E073E0B1CF9FB735
:103D9000F894E0E0F2E08081886080839FBF08951E
:103DA0002F923F924F925F926F927F928F929F924B
:103DB000AF92BF92CF92DF92EF92FF920F931F9339
:103DC000DF93CF93CDB7DEB76897CDBFDEBFDFDF20
:103DD0001E821F8286E08C8380E28D838AEF91E2CF
:103DE0008887998780E060E040E820E201E010E009
:103DF0000E94E52C81E061E04EE72EE100E010E05A
:103E00000E940B2D8BE494E06BE142E022E132E270
:103E1000D9D524E0222E312C2C0E3D1E9AE0E92E1D
:103E2000F12CEC0EFD1E8FE0682E712C2E010894F3
:103E3000411C511CC1016AE040E00E94F42D0E9427
:103E4000932B8823E1F30E94F72B882E992487FC7B
:103E500090949DDFB401882777FD8095982F0E946C
:103E60009A325B016C012CEE31E548EB5EEB0E946F
:103E7000263320E030E042EA51E40E9403320E94FF
:103E80006C32262F8CE063E042E000E010E00E94FC
:103E90000B2D8DB79EB708978DBF9EBFEDB7FEB7B0
:103EA0003196ADB7BEB71196ED92FC921297628231
:103EB000738287EA90E284839583868297820E9448
:103EC0003B34ADB7BEB71896ADBFBEBFC70166E104
:103ED0004DE022E132E247D5EDB7FEB73897EDBFAE
:103EE000FEBF0DB71EB70F5F1F4FE182F282D801F0
:103EF00012966D927C921397E3EBF0E21496ED9399
:103F0000FC931597C601B50126E636E646EE5FE35B
:103F10000E94263320E030E040E052E40E94033269
:103F20000E946732D80116966D937C9317970E9472
:103F30003B34EDB7FEB73896EDBFFEBFC70166E173
:103F400045E122E132E20FD5C2010E94763189813A
:103F5000883009F06FCF8A819B818230910509F00A
:103F600069CF6896CDBFDEBFCF91DF911F910F91D2
:103F7000FF90EF90DF90CF90BF90AF909F908F9089
:103F80007F906F905F904F903F902F9008950F9388
:103F90001F93CF93DF9300EB1CE2C4E0D0E081E0FD
:103FA000BE010E94F231F80181938F012196C03148
:103FB000D105A9F70E94F70E0E946D0FDF91CF91F6
:103FC0001F910F910895809370270895CF93DF93E9
:103FD00080917027882369F010927027C7E5D4E09C
:103FE00004C090E00E94DD2A2196FE01849188237E
:103FF000C1F70E94C5298823F1F00E94532A9091AD
:104000007127913049F48B3521F492E09093712718
:1040100013C0109271270AC0923041F41092712798
:10402000813469F0823411F488E206C08B3121F4C6
:1040300081E08093712780E0DF91CF91089586E23F
:10404000FBCF8091CF0187FDFCCF08951F93CF93C5
:10405000DF93C0ECD1E01A858A878BEC91E061E0B8
:104060000E94FC311A87DF91CF911F9108958BEC4C
:1040700091E061E00C94FC310F931F93DF93CF9399
:104080000F920F92CDB7DEB789839A83DADF00EC07
:1040900011E0F80112829A8191838981808386E000
:1040A00090E0D4DFF80184810F900F90CF91DF91E1
:1040B0001F910F910895C5DF8091CF0181FF05C049
:1040C00086E3E0ECF1E08287D2CF0895EF92FF9291
:1040D0001F93DF93CF9300D0CDB7DEB720ECE22E55
:1040E00021E0F22EF701128569838A839B83E3DF47
:1040F000A8DF23E3F701228712829B8191838A81C3
:1041000080836981648385E38287B1DFF701128749
:104110002396CDBFDEBFCF91DF911F91FF90EF902F
:1041200008959C0183709070009789F4C90164E63A
:1041300070E00E94B433009761F4C90160E971E056
:104140000E94B4339C0181E02115310519F080E013
:10415000089581E00895E5DF882319F02EE631E027
:1041600002C02DE631E0C90108950F931F93CF934C
:10417000DF93FC0180818C3338F581818C3320F50D
:104180008281883108F504810C30F0F413811F31ED
:10419000D8F4C581D681CE01C4DF90E0FC01EE0FDA
:1041A000FF1FE80FF91FEE0FFF1FEE0FFF1FE00FBD
:1041B000F11DEA58FD4D8081181730F4C25BD740DD
:1041C00081E0C838D10508F080E0DF91CF911F91E0
:1041D0000F9108956F927F928F929F92AF92BF92AC
:1041E000CF92DF92EF92FF920F931F93CF93DF93C3
:1041F000EA0122EB37E02D833E831C8220E831E583
:1042000041E050E00E94DB3379018A015B016C01DF
:10421000ECE36E2E712C812C912CA40193010E9451
:10422000DB336883C601B50120E13EE040E050E0A9
:104230000E94DB33C22EA40193010E94DB33298349
:10424000CA82C801B7016C5F7F4F8F4F9F4F27E035
:1042500030E040E050E00E94DB336F8309C0E81A91
:10426000F90A0A0B1B0B0894C11CD11CCD82DE82FB
:10427000CD80DE80C6016FDFA0E0B0E0E816F90671
:104280000A071B0760F7C6014CDF90E09C01220F74
:10429000331F280F391F220F331F220F331F06C071
:1042A000E81AF90A0A0B1B0B4F5F4C834C81F9018A
:1042B000E40FF11DEA58FD4D808190E0A0E0B0E0F0
:1042C000E816F9060A071B0758F7EB82DF91CF9132
:1042D0001F910F91FF90EF90DF90CF90BF90AF9024
:1042E0009F908F907F906F9008956F927F928F92A2
:1042F0009F92AF92BF92CF92DF92EF92FF920F9375
:104300001F93CF93DF933B014C01E801642F772784
:1043100067FD7095872F972FA22EBB24CC24DD2418
:1043200047FD19C020E13EE040E050E00E948933A3
:104330007B018C01E60CF71C081D191DC601B50197
:104340002CE330E040E050E00E948933E60EF71E97
:10435000081F191F18C020E13EE040E050E00E9415
:1043600089337B018C01E60CF71C081D191DC60161
:10437000B5012CE330E040E050E00E948933E61ABA
:10438000F70A080B190BC801B701AE0123DFDF9153
:10439000CF911F910F91FF90EF90DF90CF90BF9042
:1043A000AF909F908F907F906F900895BF92CF9223
:1043B000DF92EF92FF920F931F93CF93DF93EC0165
:1043C000D4DE882309F465C0BC80CD80DE806B819B
:1043D00070E080E090E020E831E541E050E00E94AC
:1043E00089337B018C016A8170E080E090E020E1FC
:1043F0003EE040E050E00E948933E60EF71E081FC1
:10440000191F8881E80EF11C011D111D698170E0E2
:1044100080E090E02CE330E040E050E019C0BA9436
:10442000C6017FDE90E0FC01EE0FFF1FE80FF91FD1
:10443000EE0FFF1FEE0FFF1FEB0DF11DEA58FD4DB4
:10444000608170E080E090E020E831E541E050E0FC
:104450000E948933E60EF71E081F191FBB20F9F6CC
:1044600012C00894C108D108C60175DEBC0180E005
:1044700090E020E831E541E050E00E948933E60E0B
:10448000F71E081F191F83EBC81687E0D80648F7E8
:1044900003C0EE24FF248701B701C801DF91CF914B
:1044A0001F910F91FF90EF90DF90CF90BF900895F4
:1044B0006F927F928F929F92AF92BF92CF92DF9234
:1044C000EF92FF920F931F93DF93CF930F92CDB78D
:1044D000DEB7E62E49836ADF5B016C014981611515
:1044E00071058105910509F442C0642F70E080E0F8
:1044F00090E06E2C772467FC7094872C972CE7FC57
:104500001DC02CE330E040E050E00E9489337B0185
:104510008C01C401B30120E13EE040E050E00E9484
:104520008933A60195012E193F09400B510B7901E2
:104530008A01E61AF70A080B190B1CC02CE330E0BD
:1045400040E050E00E9489337B018C01C401B3013B
:1045500020E13EE040E050E00E948933E61AF70A8D
:10456000080B190BEA0CFB1C0C1D1D1D03C0EE24CF
:10457000FF248701B701C8010F90CF91DF911F91F0
:104580000F91FF90EF90DF90CF90BF90AF909F90F2
:104590008F907F906F900895AF92BF92CF92DF92ED
:1045A000EF92FF920F931F93CF93DF93EC018B0158
:1045B0007A01CB01FBDE5B016C01CE01F7DE6A15EF
:1045C0007B058C059D0538F46E013C2F2D2DE801EF
:1045D000C901092F182F8D819E81F801258136810F
:1045E000821B930BF701858396834C81242F30E047
:1045F000F8015481251B310937FF08C0445F4C8303
:10460000009721F00197F70185839683AC80F8012C
:104610008481A81AF701A482DB808D2D90E0F80137
:104620002381821B910997FF1BC08D819E8179DDBB
:104630002C8190E0FC01EE0FFF1FE80FF91FEE0F39
:10464000FF1FEE0FFF1FEA58FD4DE20FF11D3197DE
:1046500080818D0D8B83AA2019F0AA94F701A48282
:104660002B81F8018381281BF70123833A81832F53
:1046700090E0F8014281841B910997FF07C0385EE2
:104680003A83222319F02150F70123832A81F8016C
:104690008281281BF70122833981832F90E0F80162
:1046A0004181841B910997FF07C0345C3983222321
:1046B00019F02150F70122832981F8018181281BFB
:1046C000F70121833881832F90E0F8014081841B1A
:1046D000910997FF07C0345C3883222319F02150D9
:1046E000F70121838881F8019081891BF70180837C
:1046F000DF91CF911F910F91FF90EF90DF90CF90BE
:10470000BF90AF900895EF92FF920F931F93CF93B6
:10471000DF93EC012ADD882311F40E942E34888176
:104720008F5F88838C33B1F5188289818F5F8C33DA
:1047300081F58A818F5F883151F5FB80EC800D8196
:104740001E81F394802F90E0ECDC90E0FC01EE0FF2
:10475000FF1FE80FF91FEE0FFF1FEE0FFF1FEE0DFB
:10476000F11DEA58FD4D8081F81679F48E2D8F5F8A
:104770008C3049F488E00933180720F40F5F1F4F8D
:104780000D831E8380E08C83FF24FB8280E08A837C
:1047900080E08983DF91CF911F910F91FF90EF907F
:1047A000089528E0803A920719F483E090E01CC055
:1047B00028E0803B920719F483E090E00DC029E0E7
:1047C000803A920719F484E090E00EC029E0803B23
:1047D000920721F484E090E060E207C02AE0803A8A
:1047E000920721F485E090E060E124C82BE0803A54
:1047F000920721F486E090E060E11CC808950F93D1
:104800001F93DF93CF9300D000D0CDB7DEB70983DD
:104810001A832B833C834D831E82BE016F5F7F4FC3
:104820000E94FE0B2696CDBFDEBFCF91DF911F9178
:104830000F9108950F931F93CF93DF93FC01DC0139
:1048400080E090E0262F30E0E901082E02C0D595E7
:10485000C7950A94E2F7C0FF03C050964C93509757
:10486000019611968830910579F750FF07C051FFE6
:1048700002C0658301C06683618301C06283DF91EA
:10488000CF911F910F9108958F929F92BF92CF92D7
:10489000DF92EF92FF920F931F93DF93CF930F92CC
:1048A000CDB7DEB7C82EE62EF42E4901862F642F31
:1048B000F9014481258100E010E00E940B2DF401F4
:1048C00080819181009709F041C08481282F26952D
:1048D00026952695877009F02F5FF401D5808C2DE1
:1048E00090E03681831B91096D2D70E0869FA001B9
:1048F000879F500D969F500D112430E0429FC001BC
:10490000439F900D529F900D112402811381080F37
:10491000191FF401B480CC2490E010C0292F277017
:1049200021F4F801C4900F5F1F4FC7FE05C06F2D23
:1049300041E0998355D89981CC0C9F5F892F8E0DCA
:104940009B1560F3DA9411F0F394E3CF0F90CF91BD
:10495000DF911F910F91FF90EF90DF90CF90BF906C
:104960009F908F900895CF92DF92EF92FF920F93D6
:104970001F93CF93DF93E62EF42E8901C82EE60114
:104980006E01D92EE601D62E89918A3031F4F801D4
:1049900085818F5FF80EDE2C09C08D3039F06D2DCA
:1049A0004F2D980171DFF8018481D80E888188230A
:1049B00059F7DF91CF911F910F91FF90EF90DF900A
:1049C000CF900895DF92EF92FF920F931F93CF93B2
:1049D000DF93EC01D62EE42E8901FC018491F62EA2
:1049E00015C08A3031F4F80185818F5FE80EFD2C07
:1049F0000AC098819D3039F06F2D4E2D980144DF0B
:104A0000F8018481F80E2196FE018491882349F7EC
:104A1000DF91CF911F910F91FF90EF90DF9008955C
:104A2000FB01B4816581E82FF92F962F80E071E0BA
:104A3000A191AA3019F4960F80E006C0AD3021F0A4
:104A40008B0F781708F4782FA081AA2389F7FA0131
:104A50007083F901908308950F931F93482F662365
:104A600031F080E292E260E00E94F42D07C080E025
:104A7000642F44E028E000E010E0CDD71F910F91B3
:104A800008950F931F93482F662331F08AE192E235
:104A90006CE70E94F42D07C08CE7642F44E028E007
:104AA00000E010E0B8D71F910F910895EF92FF92A8
:104AB0000F931F93DF93CF93CDB7DEB76897CDBF2A
:104AC000DEBFF82E80E068E140E827E000E010E07B
:104AD000A2D700D000D0EDB7FEB731968E010D5FA2
:104AE0001F4FADB7BEB711960D931C93129786E179
:104AF00090E08283938382EC90E2848395830E948A
:104B00003B348DB79EB706968DBF9EBFC80162E14C
:104B100072E2AE014F5F5F4F9E012E5F3F4F80DF1D
:104B2000298180E890E0821B910962E070E00E9498
:104B3000C833E62EC80148E122E132E214DF6E2DCF
:104B40006450FF2031F080E292E248E10E94F42DAF
:104B500007C0862F68E144E028E000E010E05BD762
:104B60006896CDBFDEBFCF91DF911F910F91FF906F
:104B7000EF900895CF92DF92EF92FF920F931F93E1
:104B8000DF93CF93CDB7DEB72997CDBFDEBF7C01D2
:104B9000662389F080E0D7011D966C9140E827E0FC
:104BA00000E010E038D7F7018081918165E045850C
:104BB00022E132E207DFD7011E968C911E978823EF
:104BC00029F01D968C911D9761E003C0F701858542
:104BD00060E057DFD70112968D919C911397813039
:104BE0009105B9F5EDB7FEB73897EDBFFEBF319629
:104BF0006E010894C11CD11CADB7BEB71196CD9201
:104C0000DC92129789E090E08283938385EC90E2B6
:104C100084839583D70114968D919C9115978683F3
:104C200097830E943B34EDB7FEB73896EDBFFEBFC9
:104C30008AE4D7011D966C9142E327E000E010E082
:104C4000EAD6C6016AE4F701458522E132E28BDE4D
:104C500021C00097F9F4D7011696CC9016978AE4F4
:104C60001D966C9142E327E000E010E0D4D68C2D35
:104C700090E0880F991FD7011496ED91FC9115973C
:104C8000E80FF91F808191816AE41D964C9122E121
:104C900032E298DE2996CDBFDEBFCF91DF911F9122
:104CA0000F91FF90EF90DF90CF900895CF92EF9209
:104CB000FF920F931F93FC014083518362837383A0
:104CC00001871287E386F486C586168607831087D8
:104CD0006115710521F424833583068302C00483A2
:104CE00015831F910F91FF90EF90CF900895FC01D5
:104CF00010861582148281E081870895CF93DF9317
:104D0000FC01DB0114968C911497833038F5880FE1
:104D1000880F880F858714969C911497992321F406
:104D2000ED93FC9311970FC0CD91DC91119781E029
:104D300004C00F84D889C02D8F5F8917D0F3EF8707
:104D4000F88BC18BD28B1296ED93FC93139714962C
:104D50008C9114978F5F14968C931497DF91CF9159
:104D60000895FF920F931F93CF93DF93EC0180E0A0
:104D700060E040E820E200E010E04DD68C8188231E
:104D8000A9F008811981FF2407C0C80161E0F2DEA3
:104D9000F80107851089F3948C81F816B0F380E050
:104DA00085DEE881F981858561E056DEDF91CF916E
:104DB0001F910F91FF900895CF93DF93EC016D3019
:104DC00009F456C06E3020F4683009F088C072C013
:104DD000663239F1683209F082C08E85882309F481
:104DE0007EC08A819B818130910561F48C819D8197
:104DF00029853A852817390714F4019726C08B8531
:104E00009C8523C0009709F051C04E81242F30E0CB
:104E100089859A858217930714F4415024C08B85A5
:104E200025C08E85882309F45AC08A819B818130F0
:104E3000910571F48C819D812B853C8582179307A8
:104E400014F4019602C089859A858C839D832EC0B7
:104E5000009761F54E81242F30E08B859C852817C3
:104E600039071CF44F5F4E8321C089858E831EC095
:104E70008E858823C9F08A819B818130910549F410
:104E80001E86CE0160E076DE2C813D812F8338873F
:104E900028C0009779F41E86CE0160E06BDE2E817B
:104EA0002F83188630E01DC081E08E87CE0160E040
:104EB00061DE15C01E868A819B818130910529F4AF
:104EC0008F8198858C839D8304C0009711F48F8116
:104ED0008E83CE0160E04EDE2EEF30E002C02FEF79
:104EE00030E0C901DF91CF910895EF92FF920F93C7
:104EF0001F93CF93DF93EC017A018C81882309F40F
:104F0000AAC08985882331F1E881F98120E01EC09B
:104F100082819381A22FB0E08130910551F4AA0FD4
:104F2000BB1FAE0DBF1D848195818D939C931197FE
:104F300009C0AA0FBB1FAE0DBF1D86818C931196B1
:104F40001C9211970784F089E02D2F5F8C81281720
:104F5000F8F21986088119812D812F3F51F080E0E8
:104F600006C0D8011F960D911C9150978F5F821734
:104F7000C0F388858823A9F0C8011EDF8E839F8334
:104F80008E3F910561F08F3F910509F461C0ED817D
:104F9000F0E0EE0FFF1FEE0DFF1D8083918318865A
:104FA00057C06D3009F44DC06E3020F4683009F000
:104FB0004FC051C06632F9F0683209F049C02F3F46
:104FC00029F41D8280E072DDF8012EC030E08C8172
:104FD00090E00197281739075CF5D8011D968C9150
:104FE00060E03ADD8D818F5F8D83D8011F96ED9152
:104FF000FC91509719C02F3F41F480E057DD8C8120
:1050000081508D83EA81FB810FC0222389F0D80172
:105010001D968C9160E020DD8D8181508D83D801BB
:105020005196ED91FC915297858561E015DD10C098
:10503000F801858560E010DD8FEF8D8381E036DD3E
:1050400007C02F3F59F0C8016DE0B6DE81E08887C8
:105050002FEF30E005C02EEF30E002C02DEF30E042
:10506000C901DF91CF911F910F91FF90EF900895AB
:10507000E82FE695E695E695F0E0F09695E0EE0FE0
:10508000FF1F9A95E1F790E0662359F087709070C2
:1050900021E030E002C0220F331F8A95E2F725831A
:1050A00008958770907021E030E002C0220F331F16
:1050B0008A95E2F7268308951F93182F8BE260E00C
:1050C000D7DF88E160E0D4DF8091A10985FFFCCFC4
:1050D0001093A0098091A10986FFFCCF80E4E0EA4B
:1050E000F9E081838091A0098BE261E0C1DF1F912B
:1050F0000895CF92DF92EF92FF920F931F93DF9369
:10510000CF930F920F92CDB7DEB788E1898383E00A
:1051100060E0AEDF8981982F915099838823D1F781
:1051200088E1898383E061E0A3DF8981982F915032
:1051300099838823D1F78BE28A8380EA99E031DB77
:1051400080EA99E0BE016E5F7F4F43E000E012E12C
:105150002AE730E0CC24DD24760151DB88E160E0F1
:1051600087DF80EAA9DF86EAA7DF88ECA5DF82EA8D
:10517000A3DF8FE2A1DF88EF9FDF80E09DDF81E288
:105180009BDF81E899DF87E197DF8FEA95DF0F905A
:105190000F90CF91DF911F910F91FF90EF90DF90D3
:1051A000CF9008951092892C10928A2C10925A2236
:1051B00010925B2280E092ECA1E0B0E08093722735
:1051C00090937327A0937427B09375271092762736
:1051D0001092772788E08093782781E008951092D5
:1051E00079270895089580E0089580E0089508954E
:1051F0000F931F93CF93DF938091002A882309F0A8
:1052000061C00E94900FC0918B2CD0918C2C882370
:1052100019F00E949E0F02C00E94980FC817D9076C
:1052200009F450C09FB7F89400917A278091FF2924
:10523000882331F481E0011180E080937A2704C053
:1052400081E0011180E0082F81E08093002A9FBF58
:10525000C02FD0E0FE01EE0FFF1FE558F84D11E022
:105260008081918121E08034920731F410E0109226
:105270008B2C10928C2C0DC00E94900F882319F05B
:105280000E949E0F02C00E94980F80938B2C9093D7
:105290008C2C202F30E080E491E0289FA001299FF2
:1052A000500D389F500D11244158584DCC0FDD1F23
:1052B000C558D84D2881398181E8612F07E619E268
:1052C0000E94F90FDF91CF911F910F9108950097E0
:1052D00099F480917A27E1E0F0E0882311F0E0E092
:1052E000F0E0EE0FFF1FE558F84D1082118210928A
:1052F000FF291092002A7CCF08957ACF089520913B
:105300009A2C822F90E027FF11C080769070803217
:105310009105B9F580919B2C813299F58091A02C53
:105320009091A12C8730910561F519C0807690701D
:105330008032910531F580919B2C803219F08232B8
:1053400001F519C08091A02C9091A12C8730910576
:10535000D1F427EF38E22093A62C3093A72C22E734
:1053600037E22093A22C3093A32C8093A42C90930B
:10537000A52C81E0089580919C2C81700E94E31FF0
:10538000F8CF80E0089580E008954091012A50917F
:10539000022AE091032AF0E0EE0FFF1FEC5FF54DCB
:1053A00081E0208131814217530708F080E00895A1
:1053B0000F931F932FB7F8941091032A8091882C94
:1053C000882379F44091012A5091022AE12FF0E0DC
:1053D000EE0FFF1FEC5FF54D808191814817590753
:1053E00018F42FBF80E023C01092012A1092022AE5
:1053F00081E0111180E08093032A81E08093882C62
:105400002FBFC3DF212F30E080E491E0289FA0016F
:10541000299F500D389F500D1124485F554D82E053
:1054200061E020E431E00AE11AE20E94F90F1F91E5
:105430000F910895009789F48091032AE1E0F0E04C
:10544000882311F0E0E0F0E0EE0FFF1FEC5FF54D78
:10545000608371831092882CABCF08951092002A3C
:105460001092FF2910927A2710927B2710927C27A6
:1054700010927D2710927E2710928B2C10928C2CEC
:10548000B7DE1092882C1092032A1092042A1092F0
:10549000052A1092012A1092022A8ADF8093792726
:1054A000809179270895CF92DF92EF92FF920F9328
:1054B0001F93DF93CF930F92CDB7DEB761E080915A
:1054C0007827893009F060E020E030E000E411E066
:1054D0008091012A9091022A4091032A50E0FA011A
:1054E000EE0FFF1FEC5FF54D0190F081E02D8E1760
:1054F0009F0728F080917927882351F71EC0409F8D
:10550000F001419FF00D509FF00D1124E80FF91F9D
:10551000E85FF54D4081C42EDD24C22AD32A0196CE
:105520008093012A9093022A698342DF698166236E
:1055300031F03C2D222760E0CBCFCC24DD24C60106
:105540000F90CF91DF911F910F91FF90EF90DF901F
:10555000CF900895E0917A27F0E0EE0FFF1FE55815
:10556000F84D8081918121E08034920721F580916E
:10557000FF29882381F49FB7F8948091002A88231B
:1055800049F481E08093FF2920917A27211180E05E
:1055900080937A279FBFE0917A27F0E0EE0FFF1FFC
:1055A000E558F84D81E02081318191E020343907C0
:1055B00019F480E0089581E00895EF92FF920F932F
:1055C0001F93DF93CF930F92CDB7DEB77C0141E0FD
:1055D00080917827893009F040E000E411E04983A8
:1055E000B9DF4981882329F4809179278823B9F785
:1055F00025C05FB7F89420917A2730E0D901AA0F2F
:10560000BB1FA558B84D8D919C911197209FF0011B
:10561000219FF00D309FF00D1124E80FF91FE15884
:10562000F84DE08201968D939C9311975FBF4423C0
:1056300041F0EF2CFF0CFF0840E0D1CF20E030E03C
:1056400002C021E030E0C9010F90CF91DF911F919E
:105650000F91FF90EF900895662359F52091942CB7
:105660002F5F2093942C213039F44093912C509348
:10567000922C10928E2C14C08091912C9091922C8F
:10568000840F951F969587958093912C9093922CDB
:10569000243031F41092942C81E080938E2C089564
:1056A0009FB7F894809100028460809300029FBFAE
:1056B0000895613049F52091932C2F5F2093932C0E
:1056C000213039F440938F2C5093902C10928D2CD4
:1056D00013C080918F2C9091902C840F951F9695DC
:1056E000879580938F2C9093902C243029F41092DE
:1056F000932C60938D2C08959FB7F89480910002AD
:105700008860809300029FBF0895FC016830710596
:1057100018F01082685002C081E08083660F660F27
:10572000660F618308958FB7F89490918D2C99231B
:1057300029F010928D2C8FBF81E008958FBF80E0FB
:1057400008958FB7F89490918E2C992329F0109298
:105750008E2C8FBF81E008958FBF80E008950F9356
:105760001F93DF93CF93CDB7DEB72A97CDBFDEBFB0
:105770008D81817E9E819F7890619E8396E098873F
:1057800080618D831F8280E092E0BE016C5F7F4F5D
:105790000E94AB1780E092E06CE27BE20E94171857
:1057A0008E010F5F1F4FC80160E070E0AEDF8B819C
:1057B000807F81608B8380E092E060E0A8010E949E
:1057C000E817C80161E070E0A0DF80E092E061E0EE
:1057D000A8010E94E81780E092E00E9494172A96A0
:1057E000CDBFDEBFCF91DF911F910F910895CF9371
:1057F000DF93C0918F2CD091902CBE0180E090E07F
:1058000097D621E0C53AD20750F021E836E242E4CB
:105810005DEB1CD723E333E345E552E409C02DE2F9
:1058200031E24FE95DEB12D723E333E342E852E480
:10583000EAD54DD6862FDF91CF9108958091912C96
:105840009091922C0895DF92EF92FF920F931F9305
:10585000082F142FE82FF0E0E40FF11DE138F105D7
:1058600014F010E8181B112309F452C0F62EF69418
:10587000F694F694EF2DF0E0F095E195FF4F83E07C
:10588000EE0FFF1F8A95E1F7E60FF11D61E070E072
:1058900002C0660F771FEA95E2F7E62E2130310548
:1058A00039F021303105A0F02230310589F521C0D1
:1058B0001150D12ED00E8F2D6D2D0E94321D482FEC
:1058C0004E298F2D6D2D0E94C51C112389F720C0F4
:1058D000E0941150D12ED00E8F2D6D2D0E94321DCF
:1058E000482F4E218F2D6D2D0E94C51C112389F745
:1058F0000FC01150D12ED00E8F2D6D2D0E94321D54
:10590000482F4E258F2D6D2D0E94C51C112389F720
:105910001F910F91FF90EF90DF900895DF92EF922B
:10592000FF920F931F93CF93DF93F82E022F442300
:1059300009F443C0862F8150840F681729F48F2DF6
:10594000422F0E94F01C39C08F3108F08FE1162FD2
:10595000169516951695E82EE694E694E6946770EB
:10596000CFEFD0E0FE0102C0EE0FFF1F6A95E2F715
:105970004E2F8770A7E0B0E0A81BB10902C0D595F3
:10598000C795AA95E2F7DC2E1E1521F44C23812F32
:105990006F2D10C0812F6F2D4E2F03C0812F6F2DC3
:1059A0004FEF202F0E94341D1F5F1E15B8F38E2D60
:1059B0006F2D4D2D202F0E94341DDF91CF911F910F
:1059C0000F91FF90EF90DF900895CF92DF92EF92CA
:1059D000FF920F931F93E82EF62EC42ED22E98011D
:1059E00032DF6F2D61506D0D8E2D4C2D98012BDF08
:1059F0008E2D6F2D4D2D980191DF8E2D81508C0DA8
:105A00006F2D4D2D98018ADF1F910F91FF90EF9020
:105A1000DF90CF900895CF92DF92EF92FF920F9395
:105A20001F93C82ED62EE42EF22EFF2041F0FA94BA
:105A30006F2D6D0D8C2D4E2D980105DFF6CF1F912A
:105A40000F91FF90EF90DF90CF9008952F923F92AB
:105A50004F925F926F927F928F929F92AF92BF927E
:105A6000CF92DF92EF92FF920F931F93DF93CF932A
:105A700000D00F92CDB7DEB7D82EF62E122FE32E20
:105A8000442321F4422F0E94F01C98C0842F90E000
:105A900022273327281B390B220F331F2D5F3F4F3F
:105AA0002B833C83962EAD2C8D2CC42EBB24B3941B
:105AB000402E552483E0682E712C642075200CE064
:105AC000202E312C24203520C201807390708983D0
:105AD0009A8390EC4922552401C0B82E0B2D015019
